:100000000C940C010C9434010C9434010C948C0964
:100010000C948C090C948C090C9434010C943401CC
:100020000C9434010C9434010C9434010C9434017C
:100030000C9434010C9434010C9434010C9434016C
:100040000C9460110C9434010C945A090C943409EA
:100050000C9434010C9434010C9434010C9434014C
:100060000C9434010C943401222C002C22004154B5
:100070002B43495053544152543D0041542B434962
:1000800050434C4F53453D002B4349505245435636
:100090004C454E0041542B434950524543564C4524
:1000A0004E3F002B43574D4F44450041542B43577F
:1000B0004D4F44453F0041542B4349505245435610
:1000C0004D4F44453D310041542B4349504D555807
:1000D0003D310041544530007265616479004154FE
:1000E0002B52535400222C220041542B43574A4197
:1000F000505F4355523D220041542B43574A4150D3
:100100003D220041542B43574D4F44455F435552C8
:100110003D0041542B43574D4F44453D00000000E6
:1001200008000201000003040700000000000000B6
:10013000002B434950535441545553005354415498
:1001400055530041542B4349505354415455530087
:100150002B43495052454356444154410041542B8E
:1001600043495052454356444154413D0053454E46
:100170004420005265637620003E00222C002C2291
:100180000041542B43495053454E443D004F4B00D2
:10019000554E4C494E4B004E6F2041500046414950
:1001A0004C004552524F52002C434F4E4E45435443
:1001B000204641494C002C434C4F534544002C43AE
:1001C0004F4E4E454354002B4950442C0000000034
:1001D0000023002600290000000000240027002A38
:1001E0000000000000250028002B00040404040483
:1001F00004040402020202020203030303030301D4
:1002000002040810204080010204081020010204AA
:10021000081020008717AA1111241FBECFEFD8E0C5
:10022000DEBFCDBF24E0AEE7B2E001C01D92A13B2E
:10023000B207E1F712E0A0E0B1E0E0E4F8E302C0C9
:1002400005900D92AE37B107D9F711E0CBE0D1E0C0
:1002500004C02197FE010E94CC1ACA30D107C9F709
:100260000E94CB110C94131C0C940000CF92DF92CF
:10027000EF92FF920F931F93CF93DF936C017A015C
:100280008B01C0E0D0E0CE15DF0581F0D8016D9183
:100290008D01D601ED91FC910190F081E02DC60118
:1002A0000995892B11F02196EECF7E01C701DF91D0
:1002B000CF911F910F91FF90EF90DF90CF90089515
:1002C000FC01538D448D252F30E0842F90E0821B5C
:1002D000930B541710F0CF96089501970895FC01E1
:1002E000918D828D981761F0828DDF01A80FB11D6D
:1002F0005D968C91928D9F5F9F73928F90E0089591
:100300008FEF9FEF0895FC01918D828D981731F04A
:10031000828DE80FF11D858D90E008958FEF9FEF9E
:100320000895FC01918D228D892F90E0805C9F4F74
:10033000821B91098F73992708958CEC92E00E949B
:10034000910121E0892B09F420E0822F0895FC011E
:10035000848DDF01A80FB11DA35ABF4F2C91848D4E
:1003600090E001968F739927848FA689B7892C9383
:10037000A089B1898C91837080648C93938D848DD6
:10038000981306C00288F389E02D80818F7D8083D9
:100390000895EF92FF920F931F93CF93DF93EC0199
:1003A00081E0888F9B8D8C8D981305C0E889F98931
:1003B000808185FD26C0F62E0B8D10E00F5F1F4F4C
:1003C0000F731127E02E8C8DE8120CC00FB607FCBE
:1003D000FACFE889F989808185FFF5CFCE010E94A7
:1003E000A701F1CF8B8DFE01E80FF11DE35AFF4FFE
:1003F000F0829FB7F8940B8FEA89FB898081806235
:100400000AC09FB7F894EE89FF896083E889F9896B
:1004100080818370806480839FBF81E090E0DF9162
:10042000CF911F910F91FF90EF900895CF93DF939D
:10043000EC01888D8823C9F0EA89FB89808185FDDC
:1004400005C0A889B9898C9186FD0FC00FB607FC3D
:10045000F5CF808185FFF2CFA889B9898C9185FF7E
:10046000EDCFCE010E94A701E7CFDF91CF91089594
:1004700080E090E0892B29F00E949D0181110C946D
:100480000000089521E0FC0184858F3F09F420E0FD
:10049000822F08952091C0023091C1022817390798
:1004A00071F49091BE028091BF02981741F0E091E3
:1004B000BE02F0E0E258FD4F808190E008958FEF9A
:1004C0009FEF089508951F93CF93DF93DC015C960F
:1004D0008D919C915D97009739F421E030E013965F
:1004E0003C932E9312973BC05196ED91FC915297FD
:1004F00050962C915097322F30951FB75E964C91A5
:100500005E97742F727041FD6095F8944081772357
:1005100011F0422B01C043234083EC012197F1F7F6
:1005200048E0508160FF02C0522B01C0532350832A
:10053000EC012197F1F76695415099F78081772377
:1005400019F08323808302C0282B20831FBF5C9671
:100550008D919C915D970197F1F781E090E0DF919B
:10056000CF911F9108952091C0023091C1022817A8
:10057000390771F48091BF022091BE0290E0805C47
:100580009F4F821B910960E470E00E94A41A0895B5
:1005900080E090E008952091C0023091C1022817B8
:1005A0003907B9F49091BE028091BF02981789F083
:1005B000E091BE02F0E0E258FD4F80812091BE0242
:1005C00030E02F5F3F4F2F7333272093BE0290E020
:1005D00008958FEF9FEF0895089580E090E00895CB
:1005E0000E94F31B6115710579F0FB010190002059
:1005F000E9F73197AF01461B570BDC01ED91FC91F8
:100600000280F381E02D099480E090E00895EF925C
:10061000FF920F931F93CF93DF93EC018B017A012D
:100620000E94360E688B798B8A8B9B8B8C819D8187
:10063000DC01ED91FC910280F381E02DA701B8016E
:10064000DF91CF911F910F91FF90EF9009941F932D
:10065000CF93DF93EC01162F0E94360E688B798BB7
:100660008A8B9B8B8C819D81DC01ED91FC910190AB
:10067000F081E02D612FDF91CF911F9109940F93AD
:100680001F93CF938C01DC01ED91FC910084F185E7
:10069000E02D0995892BE9F4F801C485CF3F99F045
:1006A0000E94110C85E0C89FF0011124E155FC4F18
:1006B000808180FF04C081FD02C094E005C08FEFFF
:1006C000D8011C968C9390E081E0943019F080E082
:1006D00001C081E0CF911F910F9108959F92AF9239
:1006E000BF92CF92DF92EF92FF920F931F93CF931F
:1006F000DF93FC01E288F388E114F10469F1EC0175
:1007000003811481A180B280C684D78490800E9426
:10071000110C85E0989EF0011124E155FC4F808179
:1007200080FD09C086E090E09093C9038093C803E0
:1007300020E030E007C09501A701B601892D0E9495
:100740004D0C9C0191E04A895B894217530709F4DB
:1007500090E09D831B8A1A8ADF91CF911F910F91A0
:10076000FF90EF90DF90CF90BF90AF909F90089553
:100770004F925F926F927F928F929F92AF92BF92B1
:10078000CF92DF92EF92FF920F931F93CF93DF935D
:1007900000D000D01F92CDB7DEB7FC01A0802FEFB4
:1007A000A21609F46FC00485158582859385081B00
:1007B000190B09F065C06F010E94110CB12C45E0C6
:1007C000942E9A9CC0019B9C900D1124FC01E05535
:1007D000FC4F208131812115310509F0C1C0FC0198
:1007E000E155FC4F808180FF02C081FF4EC0C601F1
:1007F0000E946E0345C0D701EFEAF3E028EC33E036
:1008000095E08D91882309F48AC0808180FFA6C07D
:1008100081FDA4C035962E173F0799F70E94110C51
:1008200064E970E080916B0390916C030E940C115D
:1008300061E088E890E00E941B0C882399F068E84A
:1008400071E089E793E00E94DF1920EBE22E23E0BC
:10085000F22E39EC832E33E0932E009709F061C01D
:100860000E940B0C85E08A9DF0018B9DF00D1124F8
:10087000E055FC4F80819181009709F4B8CF8C013D
:10088000C80170C080E090E06DC00E94360E4090BC
:10089000CA035090CB036090CC037090CD03DC0171
:1008A000CB0184199509A609B709843F9140A10598
:1008B000B105C0F20E94360E6093CA037093CB0359
:1008C0008093CC039093CD030E94110C63E471E0FC
:1008D00080916B0390916C030E940C1161E08CE39A
:1008E00091E00E941B0C882309F4BCCFCE01019635
:1008F0007C01FC0111929A94E9F741E061E081E307
:1009000091E00E942B0A882309F475CF8091780327
:100910008053F701E80FF11D81E08083EECF108254
:1009200079CFFC012081222359F02D3221F4F701E7
:100930001182108205C00E949819F70171836083AB
:1009400068E871E080E090E00E94DF19F5E0EF0ECA
:10095000F11C8E149F0409F080CF82CF90835ACF70
:1009600089018ECF0F900F900F900F900F90DF9115
:10097000CF911F910F91FF90EF90DF90CF90BF909C
:10098000AF909F908F907F906F905F904F90089561
:10099000CF93DF93EC012A853B858C859D852817B5
:1009A000390780F0CE010E94B803892B59F01B86CD
:1009B0001A86488559856E817F8188810E94E80C5E
:1009C0009D878C87DF91CF910895AF92BF92CF9290
:1009D000DF92EF92FF920F931F93CF93DF938C01DF
:1009E0005B01EA01C12CD12C209709F44BC0C8014E
:1009F0000E94B803892B09F445C0F801E484F5840A
:100A000082859385E81AF90A71F4D80118968D91B8
:100A10009C9119978C179D0730F4AE01B5018C910C
:100A20000E94E80C31C0C8010E94C804F50180E0B2
:100A300090E08E159F05D1F08C179D07B9F0D80175
:100A400016964D915C9117971A962D913C911B9794
:100A5000B9016F5F7F4F1B967C936E931A97DA01F3
:100A6000A20FB31F2C9121930196E3CFEC16FD0644
:100A700010F0CE0109C0CE19DF09AE0CBF1CCE0CA0
:100A8000DF1CB2CF80E090E08C0D9D1DDF91CF91F7
:100A90001F910F91FF90EF90DF90CF90BF90AF909C
:100AA0000895835B9F4F0C94E504CF93DF93EC0193
:100AB000C35BDF4FCE010E94B803892B61F0CE01EA
:100AC0000E94C804EE81FF818A859B85E80FF91F8B
:100AD000808190E002C08FEF9FEFDF91CF9108956A
:100AE0000F931F93CF93DF931F92CDB7DEB78C0187
:100AF000035B1F4FC8010E94B803892B19F48FEFC5
:100B00009FEF0CC041E050E0BE016F5F7F4FC80116
:100B10000E94E504892B99F3898190E00F90DF9181
:100B2000CF911F910F910895835B9F4F0C94B80351
:100B3000835B9F4F0C946E035F926F927F928F92B4
:100B40009F92AF92BF92CF92DF92EF92FF920F935C
:100B50001F93CF93DF933C016B017A01EC01C35BE0
:100B6000DF4FA12CB12C58808FEF581205C0F30134
:100B7000EE5AFF4F50825BC0E114F10409F457C0F4
:100B80008A889B888114910421F5888999898E151A
:100B90009F05F8F40B811C810980DA81C02D0E9429
:100BA000110C85E0589EF0011124E155FC4F808125
:100BB00080FD07C086E090E09093C9038093C8034E
:100BC0003AC09E01A701B601852D0E944D0C4C0133
:100BD00032C00889198908191909F60180E090E0E6
:100BE0000817190799F0E816F90681F06E857F85D8
:100BF0002A893B89A9014F5F5F4F5B8B4A8B4191EB
:100C0000DB01A20FB31F4C930196EACF4701801A74
:100C1000910A97FC0FC0CE010E946E0381149104CB
:100C200049F0C00ED11EA00EB11E74019CCF812CC4
:100C3000912C01C04701C501880D991DDF91CF910D
:100C40001F910F91FF90EF90DF90CF90BF90AF90EA
:100C50009F908F907F906F905F900895CF93DF93D8
:100C6000FC01E35BFF4F4685578522893389D90113
:100C70001196B38BA28BDA01A20FB31F6C9342893A
:100C80005389208931894217530769F4EC01CF0158
:100C90000E946E03CE5ADF4F81E090E0288122232C
:100CA00021F080E002C081E090E0DF91CF910895D3
:100CB000CF93DF93CDB7DEB728970FB6F894DEBF9A
:100CC0000FBECDBF20E831E03A8329831B821C820E
:100CD0001D821E8218861F82FC0184858F3F41F091
:100CE000AE01495F5F4FBE016F5F7F4F0E94710D84
:100CF0008F81988528960FB6F894DEBF0FBECDBFC2
:100D0000DF91CF9108950F931F93CF93DF9300D07E
:100D1000CDB7DEB78C0180E891E0F8019183808344
:100D200012821382148215821A821982FB01848531
:100D30008F3F31F0AE014F5F5F4FB8010E94710DE0
:100D4000C8010F900F90DF91CF911F910F910895DF
:100D50009F92AF92BF92CF92DF92EF92FF920F934A
:100D60001F93CF93DF93CDB7DEB760970FB6F8949C
:100D7000DEBF0FBECDBF6C017B015A01DB011296B5
:100D80008C914AE08E010F5F1F4FB80190E00E94E6
:100D9000161AF80101900020E9F73197BF01601B96
:100DA000710B8EE2982E90826F5F7F4F600F711FE4
:100DB000F70183814AE090E00E94161AF801019041
:100DC0000020E9F73197BF01601B710B90826F5FC4
:100DD0007F4F600F711FD70114968C914AE090E00D
:100DE0000E94161AF80101900020E9F73197BF011F
:100DF000601B710B90826F5F7F4F600F711FF70157
:100E000085814AE090E00E94161AD601ED91FC918E
:100E10000088F189E02DA501B801C6010995609609
:100E20000FB6F894DEBF0FBECDBFDF91CF911F91FB
:100E30000F91FF90EF90DF90CF90BF90AF909F9079
:100E400008958F929F92AF92BF92EF92FF920F936D
:100E50001F93CF93DF93CDB7DEB7A1970FB6F8946A
:100E6000DEBF0FBECDBF7C01FA01CB0119A222303B
:100E700008F42AE08E010F5D1F4F822E912CA12CC9
:100E8000B12CBF01A50194010E94681AF901CA01A1
:100E9000015011096A3014F4605D01C0695CD80129
:100EA0006C93232B242B252B61F7B801C7010E94DB
:100EB000F202A1960FB6F894DEBF0FBECDBFDF9150
:100EC000CF911F910F91FF90EF90BF90AF909F90A7
:100ED0008F9008956AE871E00C94F2020F931F93CB
:100EE000CF93DF93EC010E94F2028C01CE010E94AD
:100EF0006A07800F911FDF91CF911F910F91089585
:100F00001F93CF93DF93FC0124852F3F09F44CC03E
:100F1000EC010190F081E02D0680F781E02D09952C
:100F2000FE01E35BFF4F8FEF8083158614861386E7
:100F30001286138A128A148213821C850E94110C55
:100F4000F5E01F9FC0011124FC01E759FC4FDF01B0
:100F5000A95BBF4F1D921C92DC01A155BC4F8C9127
:100F600080FF20C0EA5BFF4F8081826080836BE757
:100F700070E080916B0390916C030E940C11412FE3
:100F800050E060E070E02AE080916B0390916C0388
:100F90000E94210780916B0390916C030E946A0765
:100FA0000E940B0C8FEF8C87DF91CF911F910895DA
:100FB000DC01ED91FC910190F081E02D09948F927C
:100FC0009F92AF92BF92CF92DF92EF92FF920F93D8
:100FD0001F93CF93DF937C018B016C0182E0C80EDD
:100FE000D11C4701E5E08E0E911CC0E0D0E0F60177
:100FF00041916F0150E060E070E02AE0C8010E947A
:1010000021075C016EE2C8010E94D8078A0D9B1D72
:10101000C80FD91FC814D90451F7F701458150E012
:1010200060E070E02AE0C8010E9421078C0F9D1F3C
:10103000DF91CF911F910F91FF90EF90DF90CF90B4
:10104000BF90AF909F908F9008950C94F2028F9272
:101050009F92AF92BF92CF92DF92FF920F931F9316
:10106000CF93DF938C015B016A01DC011C968C91AC
:101070001C978F3F39F0ED91FC910488F589E02DA4
:10108000C80109950E94110C0E94110CE3ECF3E0D9
:10109000C4E0D0E08081837009F077C085E08C9F48
:1010A00040018D9F900C1124F401E155FC4F80818B
:1010B00080FF07C085E090E09093C9038093C80348
:1010C00055C0FC2E6EE670E080916B0390916C032E
:1010D0000E940C11AE01DD0F660B770B2AE08091A8
:1010E0006B0390916C030E9421076BE670E0809186
:1010F0006B0390916C030E940C116DE871E080917C
:101100006B0390916C030E94250865EE70E080915E
:101110006B0390916C030E940C11B50180916B03DD
:1011200090916C030E94250868E670E080916B0343
:1011300090916C030E940C11A60160E070E02AE01F
:1011400080916B0390916C030E942107E401C155CB
:10115000DC4F81E0888380916B0390916C030E9447
:101160006A070E940B0C811103C01882FF24FA94B5
:10117000F801F486E35BFF4FF08281E090E0FFEF3F
:10118000FF120BC080E090E008C021973597CF3F59
:101190002FEFD20709F07ECFE9CFDF91CF911F91DA
:1011A0000F91FF90DF90CF90BF90AF909F908F9066
:1011B0000895CF92DF92EF92FF920F931F93CF93F8
:1011C000DF93EC016B018A01CA010E94D21A7C01F3
:1011D00061E971E08CEC92E00E942508BE018CEC84
:1011E00092E00E94250863EA71E08CEC92E00E9494
:1011F0002508A801B601C7010E94F81B8CEC92E0FB
:101200000E946A07E601C00ED11ECC15DD0531F043
:1012100069918CEC92E00E94D807F7CF8CEC92E0B9
:101220000E946A0766EA71E08CEC92E00E946E0709
:10123000B801C7010E94A0106091FE037091FF03E6
:1012400081EC91E00E94E419BC0181EC91E00E94E4
:10125000A010C701DF91CF911F910F91FF90EF90E8
:10126000DF90CF900C946A1B1F920F920FB60F92D3
:1012700011242F933F934F935F936F937F938F939B
:101280009F93AF93BF93EF93FF938CEC92E00E94F8
:10129000A701FF91EF91BF91AF919F918F917F91A6
:1012A0006F915F914F913F912F910F900FBE0F90D3
:1012B0001F9018951F920F920FB60F9211242F9323
:1012C0008F939F93EF93FF93E091DC02F091DD0207
:1012D0008081E091E202F091E30282FD12C09081F0
:1012E0008091E5028F5F8F732091E602821751F0A3
:1012F000E091E502F0E0E453FD4F958F8093E50225
:1013000001C08081FF91EF919F918F912F910F905C
:101310000FBE0F901F9018951F920F920FB60F924D
:1013200011242F933F934F935F936F937F938F93EA
:101330009F93AF93BF93EF93FF93E091C002F0911F
:10134000C102309709F451C0968DA685B785858571
:1013500091FF04C09C91892329F447C09C91892363
:1013600009F043C0A389B4899C918589809589231C
:101370008C93868997890197F1F7608D718DA68589
:10138000B785558538E020E0CB010197F1F7822F32
:1013900090E095958795282F4C91452309F020687A
:1013A000315091F7868D81FD20958091BF0290E0AC
:1013B00001968F7399273091BE02381749F0A0919A
:1013C000BF02B0E0A258BD4F2C938093BF0203C070
:1013D000868D8160868F828D938D0197F1F7A38929
:1013E000B4899C918589892B8C93FF91EF91BF9152
:1013F000AF919F918F917F916F915F914F913F91AD
:101400002F910F900FBE0F901F901895CF92DF92E3
:10141000EF92FF920F931F93CF93DF936C017A01AA
:101420008B01C0E0D0E0CE15DF0559F0C6010E9467
:10143000301197FD05C0F80181938F012196F3CFFC
:101440007E01C701DF91CF911F910F91FF90EF9027
:10145000DF90CF9008952F923F924F925F926F92BC
:101460007F928F929F92AF92BF92CF92DF92EF9234
:10147000FF920F931F93CF93DF9300D000D000D043
:10148000CDB7DEB75C016A834B83212C19821C82A5
:1014900085E0382E9FE3492E512C8091690390916D
:1014A0006A03DC01ED91FC910084F185E02D099542
:1014B000A114B10421F4892B11F481E093C110929D
:1014C0006D0341E050E06DE673E080916903909117
:1014D0006A030E94060A8C01892B89F4BC81BB2314
:1014E00019F082E090E0E4C062E772E080916B0363
:1014F00090916C030E946E07E1E0EC83CECF2091C7
:101500006D038091690390916A032E3349F441E0A1
:1015100050E06EE673E00E94060A10926E037DC0F2
:10152000B80163597C4F41E050E00E94060A080F61
:10153000191F80916D038D3031F480916E038A30D4
:1015400051F51C82AACF8B3231F580916E03833422
:1015500021F4FA81FF23E9F01EC08934E1F4B801D7
:1015600063597C4F44E050E08091690390916A0395
:101570000E94060A080F191FE091720320ED2E0F3A
:10158000332D2303F0011124E155FC4F808184FFAA
:1015900002C08AE301C08AE0D201A01BB10BBE8366
:1015A000AD83AB2B19F16090690370906A03F80169
:1015B000E359FC4F4F01C12CD12CE82E880FFF08B6
:1015C000C3010E94301197FD0FC08E159F0561F079
:1015D000D4018D934D01BFEFCB1ADB0AED81FE8163
:1015E000EC15FD0569F702C0DE82CD822D813E81BA
:1015F000200F311F3E832D83C9010197FC01E7595C
:10160000FC4F24812D3011F49E838D838D819E812A
:1016100087599C4FDC0114961C92A114B10461F00F
:10162000C5010E94C819AC01B5018DE693E00E9486
:10163000D119892B09F441CF45E050E067EC71E006
:101640008DE693E00E94D119892B09F445C06EEB19
:1016500071E08EE693E00E94BF19892B09F479C0EE
:1016600066EB71E08EE693E00E94BF19892B09F4C6
:1016700092C068EA71E08EE693E00E94BF19892B60
:1016800009F489C062EA71E08DE693E00E94BF1917
:10169000892B49F06DE971E08DE693E00E94BF1956
:1016A000892B09F082C0B981B11107CF83E090E0A6
:1016B0009093C9038093C8030DC0EB81EE2309F416
:1016C0008BC06DE871E08DE693E00E94BF19892B15
:1016D00009F082C080E086C08091720380538C83C1
:1016E00084E793E00E949819AB01BC01BC81B5303E
:1016F00008F027CF4115510509F423CF3B9EC001C7
:101700001124FC01E155FC4F208187599C4FFC01BD
:1017100024FD05C0E95BFF4F5183408312CFE75B97
:10172000FF4F808191812091690330916A03DC0130
:10173000ED91FC910190F081E02DB901099588238C
:1017400009F4FFCE90E008969093C9038093C803F4
:10175000F8CE20916D03205330E0329EC001339EBD
:10176000900D1124FC01E055FC4F40815181452B27
:1017700009F0E7CEFC01E155FC4F808180FF02C0FB
:1017800081FFDFCE329EF001339EF00D1124E15532
:10179000FC4F3082D6CEE0916D03E0533E9EF001C7
:1017A0001124E155FC4F1082CCCE67E971E08DE643
:1017B00093E00E94BF19892B19F484E090E078CF60
:1017C00060E971E08DE693E00E94BF19892B09F072
:1017D00074CF21E02983B5CE2394F9E1F21508F006
:1017E000B0CE7FCE26960FB6F894DEBF0FBECDBF2B
:1017F000DF91CF911F910F91FF90EF90DF90CF90ED
:10180000BF90AF909F908F907F906F905F904F9020
:101810003F902F90089540E061E08DE891E00C94B6
:101820002B0A1092C9031092C80340E060E080E0E8
:1018300090E00C942B0A1F93CF93DF93EC01162FAB
:1018400080916B0390916C030E946A07209741F08E
:1018500040E0612FCE01DF91CF911F910C942B0AB4
:10186000DF91CF911F910C940B0C0F931F93CF938B
:10187000DF938C010E94110CC9E6D3E0B8018A8184
:101880009B810E940C118A819B810E946A07DF91D3
:10189000CF911F910F910C940B0CBF92CF92DF92BE
:1018A000EF92FF920F931F93CF93DF93B82E6B01AC
:1018B0007A01E90161E871E080916B0390916C031A
:1018C0000E940C114B2D50E060E070E02AE0809106
:1018D0006B0390916C030E9421076CE280916B0373
:1018E00090916C030E94D807A70160E070E02AE0A5
:1018F00080916B0390916C030E94210701151105E3
:1019000009F16EE771E080916B0390916C030E9486
:101910000C11BE0180916B0390916C030E9425080D
:101920006BE771E080916B0390916C030E940C1146
:10193000A80160E070E02AE080916B0390916C0355
:101940000E94210761E089E791E00E941B0C882337
:1019500099F18091690390916A03DC01ED91FC910A
:101960000280F381E02DA701B601099540E061E016
:1019700083E791E00E942B0A8823F1F082E793E04D
:101980000E9498196B017C0140E061E08DE691E0D6
:101990000E942B0A882381F06DE871E082E793E0D2
:1019A0000E94BF19892B11F4C60108C088E090E09D
:1019B0009093C9038093C80380E090E0DF91CF91BA
:1019C0001F910F91FF90EF90DF90CF90BF900895FF
:1019D000AF92BF92CF92DF92EF92FF920F931F933D
:1019E000CF93DF93B82E8B017A010E94110C25E072
:1019F000B29EC0011124EC01C055DC4FC880D980D3
:101A0000C114D10469F4FC01E155FC4F808180FDD3
:101A10004BC086E090E09093C9038093C80355C003
:101A20006DE571E080916B0390916C030E940C1145
:101A30004B2D50E060E070E02AE080916B039091C4
:101A40006C030E9421076CE280916B0390916C0300
:101A50000E94D807A70160E070E02AE080916B0344
:101A600090916C030E94210760E080E591E00E9464
:101A70001B0C8823C9F08AE793E00E9498196B0138
:101A80007C01AB01B8018091690390916A030E94C7
:101A9000060AC816D90659F01982188287E090E024
:101AA0009093C9038093C803C12CD12C0EC08881A8
:101AB00099818C159D0518F41982188204C08C191F
:101AC0009D09998388830E940B0CC601DF91CF91F9
:101AD0001F910F91FF90EF90DF90CF90BF90AF904C
:101AE0000895CF92DF92EF92FF920F931F93CF93BF
:101AF000DF93D82F8B017A010E94110CCD2ED12CAF
:101B000085E0D89FF0011124E155FC4F808180FFD2
:101B10006EC063E471E080916B0390916C030E944E
:101B20000C1161E08CE391E00E941B0CC82F88230C
:101B300009F46DC041E061E081E391E00E942B0A6D
:101B4000C82F882309F453C0809178038053D81399
:101B5000F1CF64E772E08DE693E00E94DF1964E75D
:101B600072E080E090E00E94DF1964E772E080E0BC
:101B700090E00E94DF19FC0190E020E030E08AE074
:101B80004191442311F150ED540F5A3088F4829F53
:101B9000B001839F700D11249B0120533109240F44
:101BA000311D47FD3A952F3F310551F348F311C0E0
:101BB0004E3279F4933069F0D801A90FB11D129615
:101BC0002C939F5F20E030E0DBCF933011F4F801DD
:101BD000258364E772E080E090E00E94DF190E94B4
:101BE0007A19F701918380830E940B0C10C085E065
:101BF0008C9DF0018D9DF00D1124E155FC4F10825C
:101C000086E090E09093C9038093C803C0E08C2FD6
:101C1000DF91CF911F910F91FF90EF90DF90CF90C8
:101C200008953FB7F8948091C8029091C902A0919D
:101C3000CA02B091CB0226B5A89B05C02F3F19F070
:101C40000196A11DB11D3FBFBA2FA92F982F88273C
:101C5000820F911DA11DB11DBC01CD0142E0660F97
:101C6000771F881F991F4A95D1F708952FB7F894C9
:101C70006091C4027091C5028091C6029091C70222
:101C80002FBF08958F929F92AF92BF92CF92DF9213
:101C9000EF92FF92CF93DF93EC010E94360E4B013F
:101CA0005C018091FA039091FB03DC01ED91FC91C2
:101CB0000084F185E02D0995892BB9F40E94360E38
:101CC00020910204309103046B017C01C818D908EB
:101CD000EA08FB08A8EEB3E00E94951AC616D706DC
:101CE000E806F906F0F280E00DC08091FA039091C9
:101CF000FB03DC01ED91FC910284F385E02D099555
:101D0000888381E0DF91CF91FF90EF90DF90CF90BB
:101D1000BF90AF909F908F9008952F923F924F92D7
:101D20005F926F927F928F929F92AF92BF92CF926B
:101D3000DF92EF92FF920F931F93CF93DF93CDB774
:101D4000DEB72A970FB6F894DEBF0FBECDBF1C01D9
:101D50008091FC039091FD030E94420E811140C0CE
:101D60003BC07801CE0101960E94420E8823A1F16A
:101D700087010F5F1F4F8981E091FC03F091FD0304
:101D8000EE0DFF1D8083E981AE2FAF77B0E0A30198
:101D900092010E948A1A860E971EA81EB91E37E06D
:101DA000440C551C661C771C3A95D1F7E7FF29C0F7
:101DB00005301105B1F68FEF9FEF90931E048093CD
:101DC0001D048091FA039091FB03DC01ED91FC91DD
:101DD0000488F589E02D099560E070E0CB01D7C05B
:101DE000E091FC03F091FD03D0801982EE24E3948E
:101DF000F12C812C912C5401412C512C3201439413
:101E0000B1CFBD2DB07FBE838FEF800FF1018083F6
:101E1000B03381F58091FC039091FD03800F911FF9
:101E20000E94420E8823C1F22091FC033091FD03F1
:101E3000C7010296820F931F0E94420E882361F20F
:101E40000E5F1F4FE091FC03F091FD03D1018C91D7
:101E5000DF01A80FB11D11968C91119790E0982F7A
:101E6000882712962C91820F911D208121FF09C095
:101E7000029607C0F0E0E0E030E020E080E090E093
:101E800004C0F2E0E0E030E020E0A80160E070E0B3
:101E9000CF2EDE2EE32EF22E2A013B014C185D08D8
:101EA0006E087F084A825B826C827D822C01612CE5
:101EB000712C4F82588669867A864A805B806C8056
:101EC0007D804C0C5D1C6E1C7F1CC814D904EA0478
:101ED000FB0408F046C0CE0101960E94420E882302
:101EE00009F47ACF80911B0490911C04009711F1A2
:101EF0002E812033F9F4D1012C914EEF5FEF6FEF7B
:101F00007FEF421B510961097109440E551E661E7F
:101F1000771E2F81388549855A8524153505460554
:101F2000570540F4DC01ED91FC910190F081E02D2A
:101F3000698109958091FE039091FF0308171907A5
:101F400050F48981E091FC03F091FD03E00FF11F53
:101F500080830F5F1F4FBFEFCB1ADB0AEB0AFB0A30
:101F6000ACCF80911B0490911C04892B69F4809163
:101F7000FE039091FF03A0E0B0E084159505A6054F
:101F8000B70510F400E010E0B80180E090E02A9678
:101F90000FB6F894DEBF0FBECDBFDF91CF911F917A
:101FA0000F91FF90EF90DF90CF90BF90AF909F90F8
:101FB0008F907F906F905F904F903F902F900895FB
:101FC000CF93DF93EC01FA013296E60FF71FDC01A5
:101FD000AD014C1B5D0BCF01861B970B2D9122236E
:101FE00011F02193F5CF9C01241B350B620F731F59
:101FF000FB013297508331964083DF91CF91089552
:10200000EF92FF920F931F93CF93DF9300D000D0F6
:10201000CDB7DEB77B01BA0130E0962F9F77660F10
:10202000672F661F770B71956115710509F0906830
:1020300021E0230FE1E0F0E0EC0FFD1FE30FF11DC5
:1020400090836115710511F0322FE7CF30E0B701B1
:10205000621B730B6C5F7F4FDB018C93DE0111966B
:10206000F701E21BF30B359685E0E80EF11CEE1646
:10207000FF0619F08D918193FACF8091FA03909128
:10208000FB032F5F3F4F8901040F151FDC01ED910A
:10209000FC910280F381E02DA80109957C010E944A
:1020A000360E60930604709307048093080490939F
:1020B000090481E00E151F0509F080E00F900F90D4
:1020C0000F900F90DF91CF911F910F91FF90EF90A4
:1020D00008958091FA039091FB03009779F1DC0158
:1020E000ED91FC910688F789E02D099520911D045A
:1020F00030911E0481111FC0232B01F58DEF9FEF3E
:1021000090931E0480931D048091FA039091FB0329
:10211000DC01ED91FC910680F781E02D099580911D
:10212000FA039091FB03DC01ED91FC910488F589A1
:10213000E02D099503C081E0232B09F080E008958C
:10214000EF92FF920F931F93CF93DF93EC018B01DC
:102150000E946910882309F440C0E090FE03F090CB
:10216000FF03B70187E792E00E94E4199801295F15
:102170003F4F820F931FE816F90678F16091FC0338
:102180007091FD0345E050E087E792E00E94E00F88
:102190007E01E00EF11EFE01EC01CE1BDF0B9E0165
:1021A0002E0F3F1F6091FC037091FD03EE15FF059C
:1021B00031F04191DB01A20FB31F4C93F0CF0550DA
:1021C0001109A801480F591F80E3DF91CF911F919A
:1021D0000F91FF90EF900C94001080E0DF91CF9171
:1021E0001F910F91FF90EF900895CF93DF93E6EF4B
:1021F000F3E0EC018A819B81AC81BD81858F968F54
:10220000A78FB0A38BE597E094A383A312A211A29A
:10221000CF01DF91CF910895EF92FF920F931F931B
:10222000CF93DF938C017B01C0E0D0E0F701EC0F8E
:10223000FD1F6491662361F0D801ED91FC9101903E
:10224000F081E02DC8010995892B11F02196EECF80
:10225000CE01DF91CF911F910F91FF90EF900895E4
:102260000F931F93CF93DF93EC010E94360E688784
:1022700079878A879B87E881F9810284F385E02D3D
:10228000CE01099597FF17C00E94360E0885198563
:102290002A853B85DC01CB01801B910BA20BB30B84
:1022A0000C811D812E813F8180179107A207B30702
:1022B00010F38FEF9FEFDF91CF911F910F91089552
:1022C0001F920F920FB60F9211242F933F938F936B
:1022D0009F93AF93BF938091C4029091C502A09148
:1022E000C602B091C7023091AA0423E0230F2D3714
:1022F00020F40196A11DB11D05C026E8230F02960A
:10230000A11DB11D2093AA048093C4029093C5021D
:10231000A093C602B093C7028091C8029091C902EF
:10232000A091CA02B091CB020196A11DB11D80936C
:10233000C8029093C902A093CA02B093CB02BF9186
:10234000AF919F918F913F912F910F900FBE0F9062
:102350001F90189580E491E09093D8038093D70361
:102360008091C0029091C102875D934071F4E09129
:10237000EA03F091EB0390818091EC03809589232F
:1023800080831092C1021092C0028091FC03909150
:10239000FD030C946A1BCF93DF93CDB7DEB72D9767
:1023A0000FB6F894DEBF0FBECDBF789484B58260BF
:1023B00084BD84B5816084BD85B5826085BD85B5E9
:1023C000816085BD80916E00816080936E00109267
:1023D00081008091810082608093810080918100E2
:1023E0008160809381008091800081608093800073
:1023F0008091B10084608093B1008091B0008160D1
:102400008093B00080917A00846080937A008091FC
:102410007A00826080937A0080917A008160809354
:102420007A0080917A00806880937A001092C100CF
:10243000E091DC02F091DD0282E08083E091D8023D
:10244000F091D9021082E091DA02F091DB028FEC78
:1024500080831092E402E091E002F091E10286E0D4
:102460008083E091DE02F091DF02808180618083D1
:10247000E091DE02F091DF02808188608083E0914C
:10248000DE02F091DF02808180688083E091DE02CD
:10249000F091DF0280818F7D80831092F203109291
:1024A000F1031092F0031092EF031092EE031092DA
:1024B000ED038DE991E09093F4038093F303909101
:1024C000E303963108F058C02DEB30E03093EE0373
:1024D0002093ED032BE931E03093F0032093EF03D9
:1024E0002CE231E03093F2032093F1034091680035
:1024F000983058F031E09E3008F430E021E0822F2F
:1025000001C0880F3A95EAF701C084E0842B8093DC
:102510006800983038F09E3040F0963148F020E066
:1025200030E008C02DE630E005C02BE630E002C008
:102530002CE630E03093EB032093EA03983030F43C
:1025400081E001C0880F9A95EAF70EC0292F30E08C
:102550009E3018F42850310902C02E50310981E014
:1025600001C0880F2A95EAF78093EC038091F3036A
:102570009091F4030197F1F78091F1039091F203A8
:10258000892B49F1E091C002F091C10223E0E73DBF
:10259000F20709F1309739F0A389B4899C918589B4
:1025A000809589238C938091F5038E7F8093F5032A
:1025B0001092BF021092BE0287ED93E09093C10289
:1025C0008093C002E091EA03F091EB039081809147
:1025D000EC03892B808387ED93E090936A038093CB
:1025E000690390936C0380936B031092C90310925C
:1025F000C8030E94110C6EED70E080916B03909106
:102600006C030E940C1161E088ED90E00E941B0CAD
:1026100083ED90E00E94350C882309F4D3C387EC46
:1026200090E00E94350C882309F4CCC386EB90E03F
:102630000E94350C882309F4C5C36BEA70E08091D1
:102640006B0390916C030E940C1161E083EA90E0AF
:102650000E941B0C882309F4B5C380917503805335
:102660008093AD030E940B0C882309F4ABC38091C7
:10267000AD038093AE0380E08093CE03EE24E39419
:10268000F12C8091C2029091C302019709F48BC092
:1026900065ED71E08CEC92E00E94250860E171E04C
:1026A0008CEC92E00E946E070091CF030E94110C07
:1026B0009091AD03192F11608091AE03811105C077
:1026C000F092C903E092C80332C0911306C0002300
:1026D00009F4CDC3181303C02CC0002319F062E124
:1026E00071E002C063E071E080916B0390916C0334
:1026F0000E940C11412F50E060E070E02AE08091D0
:102700006B0390916C030E94210780916B03909161
:102710006C030E946A070E940B0C882341F01093FF
:10272000AD03002309F4A3C31093AE0302C082E0FB
:1027300032C068EF70E080916B0390916C030E944F
:102740000C1160E171E080916B0390916C030E9429
:10275000250865EE70E080916B0390916C030E94F8
:102760000C1160E071E080916B0390916C030E940A
:10277000250862E280916B0390916C030E94D80758
:1027800080916B0390916C030E946A070E940B0C6E
:10279000882369F281E08093CE0390E09093C30296
:1027A0008093C2026ECF80E891E09A838983809102
:1027B000210490912204A0912304B09124048B83DE
:1027C0009C83AD83BE83CE0101960E94F51089EDF6
:1027D00098E09093100480930F04AA24A394B12C42
:1027E000ACEF2A2E33243A940E946910811176C1ED
:1027F000E2E09E2E0E946910811170C169EF71E0C4
:102800008CEC92E00E946E070E946910811107C152
:102810008091FA039091FB03DC01ED91FC91068815
:10282000F789E02D0995882391F0B0920504A092D4
:10283000040487E0E3E2F1E0DE01119601900D92DD
:102840008A95E1F7DE01119685E090E039C060914C
:102850001704709118048091FA039091FB03409142
:10286000190450911A04DC01ED91FC916115710578
:1028700021F00088F189E02D18C00684F785E02D4D
:1028800070E8472E71E0572E5A8249820091130456
:102890001091140420911504309116040B831C83AD
:1028A0002D833E83BE016F5F7F4F0995019709F429
:1028B000BCCFEEEFFFEFF0931E04E0931D0484C243
:1028C0002D91E091FC03F091FD03E80FF91F2083A7
:1028D00001968C309105A1F70091FC031091FD0346
:1028E000D8011C969C921C97809101041D968C9394
:1028F0001D97809100041E968C93E090FE03F0904B
:10290000FF03B70187E192E00E94E4194196E816BF
:10291000F90608F478C04FE050E0B80187E192E092
:102920000E94E00FAC01455051096091FC03709189
:10293000FD0380E10E9400100E94360E60930604A1
:1029400070930704809308049093090460930A0429
:1029500070930B0480930C0490930D048091FA0300
:102960009091FB03DC01ED91FC910084F185E02D59
:102970000995892B11F50E94360E209102043091A1
:102980000304C0900A04D0900B04E0900C04F09073
:102990000D042B013C014C185D086E087F08A8EE61
:1029A000B3E00E94951A4616570668067906B0F2FB
:1029B00030921E0420921D0426C0CE0108960E946B
:1029C0008D0E6430710581059105E9F4E091FC03F9
:1029D000F091FD038381811111C00E94360E609336
:1029E0000A0470930B0480930C0490930D041092CE
:1029F0000E0410921E0410921D0411C090E09093DA
:102A00001E0480931D048091FA039091FB03DC0166
:102A1000ED91FC910488F589E02D0995D5C16EE30F
:102A200072E08CEC92E00E946E076091FE03709160
:102A3000FF0385E292E00E94E419BC0185E292E086
:102A40000E94A0100091FE031091FF03B80188E4DA
:102A500092E00E94E41909960817190708F4CACEF3
:102A60000E946910882309F4C5CE809104049091D6
:102A70000504019629F0909305048093040404C092
:102A8000B0920504A0920404E091FC03F091FD03D0
:102A9000809105048583E091FC03F091FD03809112
:102AA000040486836091FC037091FD0347E050E0CD
:102AB00088E492E00E94E00FE091FC03F091FD03B6
:102AC000E80FF91F1082AC01445051096091FC03DA
:102AD0007091FD0382E80E9400108CCE0E94691064
:102AE000882309F46CC10E94360E6B017C01209191
:102AF000000430910104A8EEB3E00E94951A009101
:102B00000A0410910B0420910C0430910D0426014D
:102B10003701401A510A620A730A64157505860561
:102B20009705A0F000910604109107042091080475
:102B30003091090436014701601A710A820A930A2A
:102B4000661577058805990508F043C080910E0445
:102B5000882381F030921E0420921D048091FA0394
:102B60009091FB03DC01ED91FC910488F589E02D47
:102B7000099525C1E091FC03F091FD0380EC808371
:102B8000E091FC03F091FD0311828091FA03909192
:102B9000FB036091FC037091FD03DC01ED91FC915E
:102BA0000280F381E02D42E050E00995C0920604D6
:102BB000D0920704E0920804F0920904C0920A043B
:102BC000D0920B04E0920C04F0920D0481E080930B
:102BD0000E048091FA039091FB03DC01ED91FC91CE
:102BE0000084F185E02D0995892B09F4E8C0CE0118
:102BF00001960E948D0E2B013C01672B09F4DDC06C
:102C0000C0920A04D0920B04E0920C04F0920D04DE
:102C1000E091FC03F091FD038081807F803309F017
:102C2000ACC080910F0490911004892B09F4C7C0A7
:102C3000298130E0C90102968E0F9F1FDF01A20F8C
:102C4000B31F11960C9110E0102F0027DC014C915E
:102C5000040F111D2D5F3F4FBF01620F731FA801AD
:102C60000E94011C8981E091FC03F091FD03E00FBB
:102C7000F11FE80FF11D1282E091FC03F091FD03BA
:102C8000298130E04901B2E08B0E911C8E0E9F1E0F
:102C9000808186708B87A0910F04B0911004BD874E
:102CA000AC87823009F055C0B801620F731FDF0195
:102CB000A60FB71F13968C91139790E0982F882733
:102CC00014964C91DC01A40FB11DBA87A9874BEF74
:102CD0005FEF421B530B401B510B440D551D6B5FA7
:102CE0007F4F6E0F7F1FC401EC85FD850995E09134
:102CF000FC03F091FD0380E48083E091FC03F091FC
:102D0000FD034B844182E091FC03F091FD035A8462
:102D10005282E091FC03F091FD036984638280910B
:102D2000FA039091FB036091FC037091FD03DC01B9
:102D3000ED91FC910280F381E02D44E050E0099593
:102D4000C0920604D0920704E0920804F0920904AD
:102D500036C04DEF5FEF421B530B401B510B440D30
:102D6000551D2D5F3F4F200F311FBF01620F731F95
:102D7000C401EC85FD85099522C0803CC9F480ED35
:102D80008083E091FC03F091FD0311828091FA03AE
:102D90009091FB036091FC037091FD03DC01ED91C8
:102DA000FC910280F381E02D42E050E0099507C0DC
:102DB000803D29F410920E0402C00E9469100E9406
:102DC000380212CD8FEF58CC66E672E08CEC92E0C0
:102DD0000E942508C0901D04D0901E040D2C000CEC
:102DE000EE08FF08F7FE0EC06DE28CEC92E00E9448
:102DF000D80744275527BA014C195D096E097F0988
:102E00002AE003C02AE0B701A6018CEC92E00E9400
:102E100021076EE472E08CEC92E00E946E070E9443
:102E2000110E6B017C0168E8462E63E1562E612C81
:102E3000712C0E94110EDC01CB018C199D09AE0989
:102E4000BF09883E9340A105B10598F3F1E04F1A00
:102E500051086108710828EEC20E23E0D21EE11C61
:102E6000F11C411451046104710419F7C3CC69EEDB
:102E700070E061CC90E0FC01E35EFE4F2491FC0128
:102E8000E150FE4F3491FC01E551FE4FE491EE23F9
:102E900009F43CC0222339F1233091F038F4213079
:102EA000A9F0223001F584B58F7D12C0273091F052
:102EB0002830A1F02430B9F4809180008F7D03C0C8
:102EC000809180008F77809380000DC084B58F77CC
:102ED00084BD09C08091B0008F7703C08091B0009D
:102EE0008F7D8093B000F0E0EE0FFF1FEF51FE4F9B
:102EF000A591B4919FB7F894611104C08C9130955D
:102F0000382302C0EC913E2B3C939FBF0895CF9293
:102F1000DF92EF92FF92CF93DF931092CF02109245
:102F2000CE0268EEC62E63E0D62EE12CF12CC092C4
:102F3000D002D092D102E092D202F092D3028EE27D
:102F400091E09093CD028093CC0285EC90E0909339
:102F5000D9028093D80284EC90E09093DB028093B6
:102F6000DA0280EC90E09093DD028093DC0281EC49
:102F700090E09093DF028093DE0282EC90E09093E9
:102F8000E1028093E00286EC90E09093E30280936C
:102F9000E2021092E5021092E6021092E70210920D
:102FA000E80280E891E09093260480932504109233
:102FB0002704109228041092290410922A04909356
:102FC0002C0480932B0410922D0410922E04109246
:102FD0002F04109230041092AD031092AE031092A1
:102FE000AF031092B1031092B0031092B403109289
:102FF000B6031092B5031092B9031092BB0310925E
:10300000BA031092BE031092C0031092BF03109235
:10301000C3031092C5031092C40321E030E0309343
:10302000C9032093C8039093320480933104109213
:1030300033041092340410923504109236049093A5
:103040003804809337041092390410923A04109295
:103050003B0410923C0490933E0480933D041092F4
:103060003F041092400410924104109242042FEF4A
:103070002093CE031092CF039093A5048093A404D1
:103080001092A6041092A7041092A8041092A9040A
:103090009093200480931F0431EA3093210433E29B
:1030A0003093220432E03093230434ED309324042F
:1030B0001092460410924504C0924704D0924804EE
:1030C000E0924904F0924A044EE551E050934404E2
:1030D000409343041092920410929104109294042D
:1030E000109293041092950410929B0410929A04EB
:1030F00010929D0410929C041092A3041092A204BA
:1031000040E554E0509397044093960440E250E029
:10311000509399044093980460E774E070939F047F
:1031200060939E045093A1044093A00420939004C4
:1031300020934F041092F9031092F80322E531E036
:103140003093F7032093F6039093120480931104B5
:103150001092130410921404109215041092160485
:103160008FEF9FEF90931E0480931D0483E494E0FF
:103170009093FB038093FA0310921C0410921B049B
:1031800080E091E00E94D21A9093FD038093FC03AB
:1031900080E091E09093FF038093FE038FE090E046
:1031A000909301048093000490930304809302049D
:1031B0001092DA031092D903C092DB03D092DC03A1
:1031C000E092DD03F092DE0380E491E09093D80377
:1031D0008093D7031092EE031092ED031092F00348
:1031E0001092EF031092F2031092F1031092F40385
:1031F0001092F3036091F5036E7F6D7F6093F5038A
:103200006695617081E0682783E00E943A17E2E0EA
:10321000F2E02491EEEEF1E08491882399F090E0C1
:10322000880F991FFC01E952FE4FA591B491FC0152
:10323000EF51FE4F859194918FB7F894EC91E22B6A
:10324000EC938FBFE2E0F2E0E491E093E703EEEE6F
:10325000F1E0E491F0E0EE0FFF1FEF51FE4F85919A
:1032600094919093E9038093E803E1E0F2E02491E4
:10327000EDEEF1E084918823C1F090E0880F991F72
:10328000FC01E952FE4FC591D491FC01EF51FE4F74
:10329000A591B4919FB7F8948881E22FE0958E2391
:1032A00088838C91E823EC939FBF8091F50381FD87
:1032B00004C061E082E00E943A1782E08093E30359
:1032C000E1E0F2E0E491E093E403EDEEF1E0E4917B
:1032D000F0E0EE0FFF1FE353FE4F85919491909322
:1032E000E6038093E503DF91CF91FF90EF90DF90AD
:1032F000CF900895FC0188279927E89421912032E6
:10330000E9F3293010F02E30C8F32B3241F02D3282
:1033100039F4689404C00E94361A820F911D2191DD
:1033200020532A30C0F31EF4909581959F4F089545
:103330001F93FC0199278827BC01E8941191103252
:10334000E9F3193010F01E30C8F31B3251F01D3272
:1033500049F4689406C00E94211A610F711D811DF5
:10336000911D119110531A30B0F33EF49095809551
:10337000709561957F4F8F4F9F4F1F910895FB016F
:10338000DC018D91059080190110D9F3990B0895F6
:10339000FC0105900020E9F7809590958E0F9F1F06
:1033A0000895FB01DC014150504030F08D910590B3
:1033B000801919F40020B9F7881B990B08954BEA7E
:1033C00054E00E94EF190895FC0161507040019093
:1033D0000110D8F7809590958E0F9F1F0895FA01E0
:1033E000A191B081009719F41097E1F0CD01DC01B3
:1033F000CD010D90002011F4C00113C0FB012191FB
:10340000222319F02015D9F7F3CFFB0121912015C4
:1034100019F41E92119606C02223C1F70D900020C8
:10342000A1F7D001FA01A193B0830895BB274A30D8
:1034300031F4992322F4BDE2909581959F4F0C942D
:103440003F1A592F482F372F262F660F771F881FB7
:10345000991F660F771F881F991F620F731F841FA4
:10346000951F660F771F881F991F08957AE0979F11
:10347000902D879F802D910D11240895BB27FB016E
:103480005527AA27880F991FAA1FA41710F0A41B5D
:1034900083955051B9F7A05DAA3308F0A95DA193B7
:1034A000009779F7B111B1931192CB010C94581A8E
:1034B000DC01FC01672F71917723E1F7329704C09B
:1034C0007C916D9370836291AE17BF07C8F3089526
:1034D000A1E21A2EAA1BBB1BFD010DC0AA1FBB1F18
:1034E000EE1FFF1FA217B307E407F50720F0A21B8A
:1034F000B30BE40BF50B661F771F881F991F1A94F7
:1035000069F760957095809590959B01AC01BD0120
:10351000CF0108950E94951AA59F900DB49F900D1C
:10352000A49F800D911D11240895A29FB001B39F07
:10353000C001A39F700D811D1124911DB29F700DBC
:10354000811D1124911D089597FB072E16F40094F8
:1035500007D077FD09D00E94B81A07FC05D03EF4C9
:10356000909581959F4F0895709561957F4F08952F
:10357000AA1BBB1B51E107C0AA1FBB1FA617B70799
:1035800010F0A61BB70B881F991F5A95A9F78095B5
:103590009095BC01CD010895EE0FFF1F0590F491A9
:1035A000E02D09940F931F93CF93DF938230910501
:1035B00010F482E090E0E091AF04F091B00420E0DC
:1035C00030E0A0E0B0E0309719F1408151810281F4
:1035D000138148175907C8F08417950769F41097A5
:1035E00031F012960C93129713961C9327C00093F8
:1035F000AF041093B00422C02115310519F0421711
:10360000530718F49A01BD01EF01DF01F801DBCF88
:1036100021153105F9F0281B390B2430310580F4D0
:103620008A819B816115710521F0FB01938382835F
:1036300004C09093B0048093AF04FE01329644C05E
:10364000FE01E20FF31F81939193225031093983D8
:1036500028833AC02091AD043091AE04232B41F46D
:1036600020911F01309120013093AE042093AD04CE
:1036700020911D0130911E012115310541F42DB716
:103680003EB74091210150912201241B350BE0915E
:10369000AD04F091AE04E217F307A0F42E1B3F0B2C
:1036A0002817390778F0AC014E5F5F4F24173507B4
:1036B00048F04E0F5F1F5093AE044093AD048193CA
:1036C000919302C0E0E0F0E0CF01DF91CF911F9134
:1036D0000F910895CF93DF93009709F481C0FC0107
:1036E000329713821282A091AF04B091B004109768
:1036F00081F420813181820F931F2091AD0430919C
:10370000AE042817390751F5F093AE04E093AD04E9
:1037100067C0ED0120E030E0CE17DF0740F44A81BA
:103720005B819E0141155105F1F0EA01F5CFD3838C
:10373000C28340815181840F951FC817D90759F45E
:1037400088819981840F951F0296918380838A8155
:103750009B81938382832115310529F4F093B00472
:10376000E093AF043DC0E901FB83EA83499159919D
:10377000C40FD51FEC17FD0761F480819181840F80
:10378000951F0296E90199838883828193819B83A7
:103790008A83E0E0F0E012968D919C911397009758
:1037A00019F0FD01DC01F7CF8D919C9111979D01DE
:1037B0002E5F3F4F820F931F2091AD043091AE04D6
:1037C0002817390769F4309729F41092B004109241
:1037D000AF0402C013821282B093AE04A093AD0472
:1037E000DF91CF91089581E090E0F8940C94131C40
:1037F000FB01DC0102C001900D9241505040D8F70E
:1038000008956817790768F4FB01DC01E40FF51FE0
:10381000A40FB51F02C002900E9241505040D8F73D
:1038200008950C94F81B11E0CBE0D1E004C0FE0138
:103830000E94CC1A2196CC30D107C9F7F894FFCF5B
:1038400067656D6D796D696666793636353231003A
:103850004F505455535F333835343534000000B180
:1038600004200000044D5154540400000000C9011C
:1038700036016001160291016F0183010000000012
:1038800063023601ED026202B302CB024A0200007B
:10389000000027030703ED02EC02000000002E06E3
:1038A0009C05ED029805940570055505A8062708A6
:1038B000510580073F0342028306580600000000BE
:1038C000DF0700000000F0022C000D0A00544350F6
:1038D000004D657373616765206172726976656416
:1038E000205B005D20004D65737361676564207225
:1038F000656C6179656420746F20706174707562A5
:1039000000537562736372696265205375636573F2
:103910007366756C00417474656D7074696E6720B0
:10392000746F20636F6E6E65637420746F205750E0
:103930004120535349443A2000417474656D7074BA
:10394000696E67204D51545420636F6E6E656374C9
:10395000696F6E2E2E2E0041726475696E6F436C16
:1039600069656E740041726475696E6F2068617379
:10397000207375636365737366756C6C7920636F10
:103980006E6E656374656400706174696E002074A6
:10399000727920616761696E20696E2035207365D8
:1039A000636F6E6473006661696C65642C2072637A
:0E39B0003D003F002C22007061746F757400A2
:00000001FF
