:100000000C940C010C9434010C9434010C9461098F
:100010000C9461090C9461090C9434010C94340122
:100020000C9434010C9434010C9434010C9434017C
:100030000C9434010C9434010C9434010C9434016C
:100040000C94E0100C9434010C942F090C940909C1
:100050000C9434010C9434010C9434010C9434014C
:100060000C9434010C943401222C002C22004154B5
:100070002B43495053544152543D0041542B434962
:1000800050434C4F53453D002B4349505245435636
:100090004C454E0041542B434950524543564C4524
:1000A0004E3F002B43574D4F44450041542B43577F
:1000B0004D4F44453F0041542B4349505245435610
:1000C0004D4F44453D310041542B4349504D555807
:1000D0003D310041544530007265616479004154FE
:1000E0002B52535400222C220041542B43574A4197
:1000F000505F4355523D220041542B43574A4150D3
:100100003D220041542B43574D4F44455F435552C8
:100110003D0041542B43574D4F44453D00000000E6
:1001200008000201000003040700000000000000B6
:10013000002B434950535441545553005354415498
:1001400055530041542B4349505354415455530087
:100150002B43495052454356444154410041542B8E
:1001600043495052454356444154413D0053454E46
:100170004420005265637620003E00222C002C2291
:100180000041542B43495053454E443D004F4B00D2
:10019000554E4C494E4B004E6F2041500046414950
:1001A0004C004552524F52002C434F4E4E45435443
:1001B000204641494C002C434C4F534544002C43AE
:1001C0004F4E4E454354002B4950442C0000000034
:1001D0000023002600290000000000240027002A38
:1001E0000000000000250028002B00040404040483
:1001F00004040402020202020203030303030301D4
:1002000002040810204080010204081020010204AA
:100210000810200042172A1111241FBECFEFD8E08A
:10022000DEBFCDBF24E0A4E6B2E001C01D92A73935
:10023000B207E1F712E0A0E0B1E0E6EBF7E302C0BD
:1002400005900D92A436B107D9F711E0CBE0D1E0CB
:1002500004C02197FE010E94871ACA30D107C9F74E
:100260000E944B110C94CE1B0C940000CF92DF9295
:10027000EF92FF920F931F93CF93DF936C017A015C
:100280008B01C0E0D0E0CE15DF0581F0D8016D9183
:100290008D01D601ED91FC910190F081E02DC60118
:1002A0000995892B11F02196EECF7E01C701DF91D0
:1002B000CF911F910F91FF90EF90DF90CF90089515
:1002C000FC01538D448D252F30E0842F90E0821B5C
:1002D000930B541710F0CF96089501970895FC01E1
:1002E000918D828D981761F0828DDF01A80FB11D6D
:1002F0005D968C91928D9F5F9F73928F90E0089591
:100300008FEF9FEF0895FC01918D828D981731F04A
:10031000828DE80FF11D858D90E008958FEF9FEF9E
:100320000895FC01918D228D892F90E0805C9F4F74
:10033000821B91098F739927089582EB92E00E94A6
:10034000910121E0892B09F420E0822F0895FC011E
:10035000848DDF01A80FB11DA35ABF4F2C91848D4E
:1003600090E001968F739927848FA689B7892C9383
:10037000A089B1898C91837080648C93938D848DD6
:10038000981306C00288F389E02D80818F7D8083D9
:100390000895EF92FF920F931F93CF93DF93EC0199
:1003A00081E0888F9B8D8C8D981305C0E889F98931
:1003B000808185FD26C0F62E0B8D10E00F5F1F4F4C
:1003C0000F731127E02E8C8DE8120CC00FB607FCBE
:1003D000FACFE889F989808185FFF5CFCE010E94A7
:1003E000A701F1CF8B8DFE01E80FF11DE35AFF4FFE
:1003F000F0829FB7F8940B8FEA89FB898081806235
:100400000AC09FB7F894EE89FF896083E889F9896B
:1004100080818370806480839FBF81E090E0DF9162
:10042000CF911F910F91FF90EF900895CF93DF939D
:10043000EC01888D8823C9F0EA89FB89808185FDDC
:1004400005C0A889B9898C9186FD0FC00FB607FC3D
:10045000F5CF808185FFF2CFA889B9898C9185FF7E
:10046000EDCFCE010E94A701E7CFDF91CF91089594
:1004700080E090E0892B29F00E949D0181110C946D
:100480000000089521E0FC0184858F3F09F420E0FD
:10049000822F08952091A6023091A70228173907CC
:1004A00071F49091A4028091A502981741F0E09117
:1004B000A402F0E0EC59FD4F808190E008958FEFA9
:1004C0009FEF089508951F93CF93DF93DC015C960F
:1004D0008D919C915D97009739F421E030E013965F
:1004E0003C932E9312973BC05196ED91FC915297FD
:1004F00050962C915097322F30951FB75E964C91A5
:100500005E97742F727041FD6095F8944081772357
:1005100011F0422B01C043234083EC012197F1F7F6
:1005200048E0508160FF02C0522B01C0532350832A
:10053000EC012197F1F76695415099F78081772377
:1005400019F08323808302C0282B20831FBF5C9671
:100550008D919C915D970197F1F781E090E0DF919B
:10056000CF911F9108952091A6023091A7022817DC
:10057000390771F48091A5022091A40290E0805C7B
:100580009F4F821B910960E470E00E945F1A0895FA
:1005900080E090E008952091A6023091A7022817EC
:1005A0003907B9F49091A4028091A502981789F0B7
:1005B000E091A402F0E0EC59FD4F80812091A4026B
:1005C00030E02F5F3F4F2F7333272093A40290E03A
:1005D00008958FEF9FEF0895089580E090E00895CB
:1005E0000E94AE1B6115710579F0FB01019000209E
:1005F000E9F73197AF01461B570BDC01ED91FC91F8
:100600000280F381E02D099480E090E00895EF925C
:10061000FF920F931F93CF93DF93EC018B017A012D
:100620000E943D0E688B798B8A8B9B8B8C819D8180
:10063000DC01ED91FC910280F381E02DA701B8016E
:10064000DF91CF911F910F91FF90EF9009941F932D
:10065000CF93DF93EC01162F0E943D0E688B798BB0
:100660008A8B9B8B8C819D81DC01ED91FC910190AB
:10067000F081E02D612FDF91CF911F9109940F93AD
:100680001F93CF938C01DC01ED91FC910084F185E7
:10069000E02D0995892BE9F4F801C485CF3F99F045
:1006A0000E94C10B85E0C89FF0011124EB56FC4F5E
:1006B000808180FF04C081FD02C094E005C08FEFFF
:1006C000D8011C968C9390E081E0943019F080E082
:1006D00001C081E0CF911F910F9108959F92AF9239
:1006E000BF92CF92DF92EF92FF920F931F93CF931F
:1006F000DF93FC01E288F388E114F10469F1EC0175
:1007000003811481A180B280C684D78490800E9426
:10071000C10B85E0989EF0011124EB56FC4F8081BF
:1007200080FD09C086E090E09093AF038093AE0314
:1007300020E030E007C09501A701B601892D0E9495
:10074000540C9C0191E04A895B894217530709F4D4
:1007500090E09D831B8A1A8ADF91CF911F910F91A0
:10076000FF90EF90DF90CF90BF90AF909F90089553
:100770004F925F926F927F928F929F92AF92BF92B1
:10078000CF92DF92EF92FF920F931F93CF93DF935D
:1007900000D000D01F92CDB7DEB7FC01A0802FEFB4
:1007A000A21609F46FC00485158582859385081B00
:1007B000190B09F065C06F010E94C10BB12C45E017
:1007C000942E9A9CC0019B9C900D1124FC01EA562A
:1007D000FC4F208131812115310509F0C1C0FC0198
:1007E000EB56FC4F808180FF02C081FF4EC0C601E6
:1007F0000E946E0345C0D701E5E9F3E02EEA33E03D
:1008000095E08D91882309F48AC0808180FFA6C07D
:1008100081FDA4C035962E173F0799F70E94C10BA2
:1008200064E970E080915103909152030E94671037
:1008300061E088E890E00E94CB0B882399F068E89B
:1008400071E08FE593E00E949A1926E9E22E23E0F9
:10085000F22E3FEA832E33E0932E009709F061C019
:100860000E94BB0B85E08A9DF0018B9DF00D112449
:10087000EA56FC4F80819181009709F4B8CF8C0132
:10088000C80170C080E090E06DC00E943D0E4090B5
:10089000B0035090B1036090B2037090B303DC01D9
:1008A000CB0184199509A609B709843F9140A10598
:1008B000B105C0F20E943D0E6093B0037093B10386
:1008C0008093B2039093B3030E94C10B63E471E081
:1008D00080915103909152030E94671061E08CE374
:1008E00091E00E94CB0B882309F4BCCFCE01019686
:1008F0007C01FC0111929A94E9F741E061E081E307
:1009000091E00E94DB09882309F475CF80915E0392
:100910008053F701E80FF11D81E08083EECF108254
:1009200079CFFC012081222359F02D3221F4F701E7
:100930001182108205C00E945319F70171836083F0
:1009400068E871E080E090E00E949A19F5E0EF0E0F
:10095000F11C8E149F0409F080CF82CF90835ACF70
:1009600089018ECF0F900F900F900F900F90DF9115
:10097000CF911F910F91FF90EF90DF90CF90BF909C
:10098000AF909F908F907F906F905F904F90089561
:10099000CF93DF93EC012A853B858C859D852817B5
:1009A000390780F0CE010E94B803892B59F01B86CD
:1009B0001A86488559856E817F8188810E94EF0C57
:1009C0009D878C87DF91CF910895AF92BF92CF9290
:1009D000DF92EF92FF920F931F93CF93DF938C01DF
:1009E0005B01EA01C12CD12C209709F44BC0C8014E
:1009F0000E94B803892B09F445C0F801E484F5840A
:100A000082859385E81AF90A71F4D80118968D91B8
:100A10009C9119978C179D0730F4AE01B5018C910C
:100A20000E94EF0C31C0C8010E94C804F50180E0AB
:100A300090E08E159F05D1F08C179D07B9F0D80175
:100A400016964D915C9117971A962D913C911B9794
:100A5000B9016F5F7F4F1B967C936E931A97DA01F3
:100A6000A20FB31F2C9121930196E3CFEC16FD0644
:100A700010F0CE0109C0CE19DF09AE0CBF1CCE0CA0
:100A8000DF1CB2CF80E090E08C0D9D1DDF91CF91F7
:100A90001F910F91FF90EF90DF90CF90BF90AF909C
:100AA0000895835B9F4F0C94E504CF93DF93EC0193
:100AB000C35BDF4FCE010E94B803892B61F0CE01EA
:100AC0000E94C804EE81FF818A859B85E80FF91F8B
:100AD000808190E002C08FEF9FEFDF91CF9108956A
:100AE0000F931F93CF93DF931F92CDB7DEB78C0187
:100AF000035B1F4FC8010E94B803892B19F48FEFC5
:100B00009FEF0CC041E050E0BE016F5F7F4FC80116
:100B10000E94E504892B99F3898190E00F90DF9181
:100B2000CF911F910F910895835B9F4F0C94B80351
:100B3000835B9F4F0C946E035F926F927F928F92B4
:100B40009F92AF92BF92CF92DF92EF92FF920F935C
:100B50001F93CF93DF933C016B017A01EC01C35BE0
:100B6000DF4FA12CB12C58808FEF581205C0F30134
:100B7000EE5AFF4F50825BC0E114F10409F457C0F4
:100B80008A889B888114910421F5888999898E151A
:100B90009F05F8F40B811C810980DA81C02D0E9429
:100BA000C10B85E0589EF0011124EB56FC4F80816B
:100BB00080FD07C086E090E09093AF038093AE0382
:100BC0003AC09E01A701B601852D0E94540C4C012C
:100BD00032C00889198908191909F60180E090E0E6
:100BE0000817190799F0E816F90681F06E857F85D8
:100BF0002A893B89A9014F5F5F4F5B8B4A8B4191EB
:100C0000DB01A20FB31F4C930196EACF4701801A74
:100C1000910A97FC0FC0CE010E946E0381149104CB
:100C200049F0C00ED11EA00EB11E74019CCF812CC4
:100C3000912C01C04701C501880D991DDF91CF910D
:100C40001F910F91FF90EF90DF90CF90BF90AF90EA
:100C50009F908F907F906F905F900895CF93DF93D8
:100C6000FC01E35BFF4F4685578522893389D90113
:100C70001196B38BA28BDA01A20FB31F6C9342893A
:100C80005389208931894217530769F4EC01CF0158
:100C90000E946E03CE5ADF4F81E090E0288122232C
:100CA00021F080E002C081E090E0DF91CF910895D3
:100CB000CF93DF93CDB7DEB728970FB6F894DEBF9A
:100CC0000FBECDBF20E831E03A8329831B821C820E
:100CD0001D821E8218861F82FC0184858F3F41F091
:100CE000AE01495F5F4FBE016F5F7F4F0E94780D7D
:100CF0008F81988528960FB6F894DEBF0FBECDBFC2
:100D0000DF91CF9108950F931F93CF93DF9300D07E
:100D1000CDB7DEB78C0180E891E0F8019183808344
:100D200012821382148215821A821982FB01848531
:100D30008F3F31F0AE014F5F5F4FB8010E94780DD9
:100D4000C8010F900F90DF91CF911F910F910895DF
:100D50009F92AF92BF92CF92DF92EF92FF920F934A
:100D60001F93CF93DF93CDB7DEB760970FB6F8949C
:100D7000DEBF0FBECDBF6C017B015A01DB011296B5
:100D80008C914AE08E010F5F1F4FB80190E00E94E6
:100D9000D119F80101900020E9F73197BF01601BDC
:100DA000710B8EE2982E90826F5F7F4F600F711FE4
:100DB000F70183814AE090E00E94D119F801019087
:100DC0000020E9F73197BF01601B710B90826F5FC4
:100DD0007F4F600F711FD70114968C914AE090E00D
:100DE0000E94D119F80101900020E9F73197BF0165
:100DF000601B710B90826F5F7F4F600F711FF70157
:100E000085814AE090E00E94D119D601ED91FC91D4
:100E10000088F189E02DA501B801C6010995609609
:100E20000FB6F894DEBF0FBECDBFDF91CF911F91FB
:100E30000F91FF90EF90DF90CF90BF90AF909F9079
:100E400008958F929F92AF92BF92EF92FF920F936D
:100E50001F93CF93DF93CDB7DEB7A1970FB6F8946A
:100E6000DEBF0FBECDBF7C01FA01CB0119A222303B
:100E700008F42AE08E010F5D1F4F822E912CA12CC9
:100E8000B12CBF01A50194010E94231AF901CA01E6
:100E9000015011096A3014F4605D01C0695CD80129
:100EA0006C93232B242B252B61F7B801C7010E94DB
:100EB000F202A1960FB6F894DEBF0FBECDBFDF9150
:100EC000CF911F910F91FF90EF90BF90AF909F90A7
:100ED0008F9008956AE871E00C94F2020F931F93CB
:100EE000CF93DF93EC010E94F2028C01CE010E94AD
:100EF0006A07800F911FDF91CF911F910F91089585
:100F00001F93CF93DF93FC0124852F3F09F44CC03E
:100F1000EC010190F081E02D0680F781E02D09952C
:100F2000FE01E35BFF4F8FEF8083158614861386E7
:100F30001286138A128A148213821C850E94C10BA6
:100F4000F5E01F9FC0011124FC01E15BFC4FDF01B4
:100F5000A95BBF4F1D921C92DC01AB56BC4F8C911C
:100F600080FF20C0EA5BFF4F8081826080836BE757
:100F700070E080915103909152030E946710412FBD
:100F800050E060E070E02AE08091510390915203BC
:100F90000E94210780915103909152030E946A0799
:100FA0000E94BB0B8FEF8C87DF91CF911F9108952B
:100FB000DC01ED91FC910190F081E02D09948F927C
:100FC0009F92AF92BF92CF92DF92EF92FF920F93D8
:100FD0001F93CF93DF937C018B016C0182E0C80EDD
:100FE000D11C4701E5E08E0E911CC0E0D0E0F60177
:100FF00041916F0150E060E070E02AE0C8010E947A
:1010000021075C016EE2C8010E94D8078A0D9B1D72
:10101000C80FD91FC814D90451F7F701458150E012
:1010200060E070E02AE0C8010E9421078C0F9D1F3C
:10103000DF91CF911F910F91FF90EF90DF90CF90B4
:10104000BF90AF909F908F9008950C94F2028F9272
:101050009F92AF92BF92CF92DF92FF920F931F9316
:10106000CF93DF938C015B016A01DC011C968C91AC
:101070001C978F3F39F0ED91FC910488F589E02DA4
:10108000C80109950E94C10B0E94C10BE9EAF3E077
:10109000C4E0D0E08081837009F077C085E08C9F48
:1010A00040018D9F900C1124F401EB56FC4F808180
:1010B00080FF07C085E090E09093AF038093AE037C
:1010C00055C0FC2E6EE670E0809151039091520362
:1010D0000E946710AE01DD0F660B770B2AE080914E
:1010E0005103909152030E9421076BE670E08091BA
:1010F0005103909152030E9467106DE871E0809156
:101100005103909152030E94250865EE70E0809192
:101110005103909152030E946710B50180915103D1
:10112000909152030E94250868E670E08091510377
:10113000909152030E946710A60160E070E02AE0DF
:1011400080915103909152030E942107E401CB56F4
:10115000DC4F81E0888380915103909152030E947B
:101160006A070E94BB0B811103C01882FF24FA9406
:10117000F801F486E35BFF4FF08281E090E0FFEF3F
:10118000FF120BC080E090E008C021973597CF3F59
:101190002FEFD20709F07ECFE9CFDF91CF911F91DA
:1011A0000F91FF90DF90CF90BF90AF909F908F9066
:1011B0000895EF92FF920F931F93CF93DF93EC016B
:1011C0007B018A0161E971E082EB92E00E942508CF
:1011D000BE0182EB92E00E94250863EA71E082EB97
:1011E00092E00E942508E7010E0D1F1DC017D107D0
:1011F00031F0699182EB92E00E94D807F7CF82EB41
:1012000092E0DF91CF911F910F91FF90EF900C949E
:101210006A071F920F920FB60F9211242F933F93DC
:101220004F935F936F937F938F939F93AF93BF93EE
:10123000EF93FF9382EB92E00E94A701FF91EF9161
:10124000BF91AF919F918F917F916F915F914F91DE
:101250003F912F910F900FBE0F901F9018951F92E6
:101260000F920FB60F9211242F938F939F93EF93AA
:10127000FF93E091C202F091C3028081E091C80225
:10128000F091C90282FD12C090818091CB028F5FE4
:101290008F732091CC02821751F0E091CB02F0E0E5
:1012A000EE54FD4F958F8093CB0201C08081FF915A
:1012B000EF919F918F912F910F900FBE0F901F90E4
:1012C00018951F920F920FB60F9211242F933F93F0
:1012D0004F935F936F937F938F939F93AF93BF933E
:1012E000EF93FF93E091A602F091A702309709F4E3
:1012F00051C0968DA685B785858591FF04C09C91C8
:10130000892329F447C09C91892309F043C0A3890C
:10131000B4899C918589809589238C938689978946
:101320000197F1F7608D718DA685B785558538E0F9
:1013300020E0CB010197F1F7822F90E095958795FA
:10134000282F4C91452309F02068315091F7868D64
:1013500081FD20958091A50290E001968F739927D9
:101360003091A402381749F0A091A502B0E0AC5921
:10137000BD4F2C938093A50203C0868D8160868F1C
:10138000828D938D0197F1F7A389B4899C9185890A
:10139000892B8C93FF91EF91BF91AF919F918F918A
:1013A0007F916F915F914F913F912F910F900FBE61
:1013B0000F901F9018952F923F924F925F926F92CD
:1013C0007F928F929F92AF92BF92CF92DF92EF92D5
:1013D000FF920F931F93CF93DF9300D000D000D0E4
:1013E000CDB7DEB75C016A834B83212C19821C8246
:1013F00085E0382E9FE3492E512C80914F03909128
:101400005003DC01ED91FC910084F185E02D0995FC
:10141000A114B10421F4892B11F481E093C110923D
:10142000530341E050E063E573E080914F039091F6
:1014300050030E94BB108C01892B89F4BC81BB2313
:1014400019F082E090E0E4C06EE572E08091510313
:10145000909152030E946E07E1E0EC83CECF209181
:10146000530380914F03909150032E3349F441E090
:1014700050E064E573E00E94BB10109254037DC0FD
:10148000B8016D5A7C4F41E050E00E94BB10080F3C
:10149000191F809153038D3031F4809154038A30A9
:1014A00051F51C82AACF8B3231F5809154038334DD
:1014B00021F4FA81FF23E9F01EC08934E1F4B80178
:1014C0006D5A7C4F44E050E080914F03909150035F
:1014D0000E94BB10080F191FE091580320ED2E0F3A
:1014E000332D2303F0011124EB56FC4F808184FF40
:1014F00002C08AE301C08AE0D201A01BB10BBE8307
:10150000AD83AB2B19F160904F0370905003F8013D
:10151000ED5AFC4F4F01C12CD12CE82E880FFF084B
:10152000C3010E948B1097FD0FC08E159F0561F0BF
:10153000D4018D934D01BFEFCB1ADB0AED81FE8103
:10154000EC15FD0569F702C0DE82CD822D813E815A
:10155000200F311F3E832D83C9010197FC01E15B00
:10156000FC4F24812D3011F49E838D838D819E81CB
:10157000815B9C4FDC0114961C92A114B10461F0B4
:10158000C5010E948319AC01B50183E593E00E9477
:101590008C19892B09F441CF45E050E067EC71E0EC
:1015A00083E593E00E948C19892B09F445C06EEB0A
:1015B00071E084E593E00E947A19892B09F479C0DF
:1015C00066EB71E084E593E00E947A19892B09F4B7
:1015D00092C068EA71E084E593E00E947A19892B51
:1015E00009F489C062EA71E083E593E00E947A1908
:1015F000892B49F06DE971E083E593E00E947A1947
:10160000892B09F082C0B981B11107CF83E090E046
:101610009093AF038093AE030DC0EB81EE2309F4EA
:101620008BC06DE871E083E593E00E947A19892B05
:1016300009F082C080E086C08091580380538C837B
:101640008AE593E00E945319AB01BC01BC81B5301F
:1016500008F027CF4115510509F423CF3B9EC00167
:101660001124FC01EB56FC4F2081815B9C4FFC0157
:1016700024FD05C0E95BFF4F5183408312CFE75B38
:10168000FF4F8081918120914F0330915003DC0105
:10169000ED91FC910190F081E02DB901099588232D
:1016A00009F4FFCE90E008969093AF038093AE03C9
:1016B000F8CE20915303205330E0329EC001339E78
:1016C000900D1124FC01EA56FC4F40815181452BBD
:1016D00009F0E7CEFC01EB56FC4F808180FF02C091
:1016E00081FFDFCE329EF001339EF00D1124EB56C8
:1016F000FC4F3082D6CEE0915303E0533E9EF00182
:101700001124EB56FC4F1082CCCE67E971E083E5E3
:1017100093E00E947A19892B19F484E090E078CF45
:1017200060E971E083E593E00E947A19892B09F062
:1017300074CF21E02983B5CE2394F9E1F21508F0A6
:10174000B0CE7FCE26960FB6F894DEBF0FBECDBFCB
:10175000DF91CF911F910F91FF90EF90DF90CF908D
:10176000BF90AF909F908F907F906F905F904F90C1
:101770003F902F90089540E061E08DE891E00C9457
:10178000DB091092AF031092AE0340E060E080E00E
:1017900090E00C94DB091F93CF93DF93EC01162F9D
:1017A00080915103909152030E946A07209741F063
:1017B00040E0612FCE01DF91CF911F910C94DB09A6
:1017C000DF91CF911F910C94BB0B0F931F93CF937D
:1017D000DF938C010E94C10BCFE4D3E0B8018A8172
:1017E0009B810E9467108A819B810E946A07DF911A
:1017F000CF911F910F910C94BB0BCF93DF93EC0112
:10180000FA013296E60FF71FDC01AD014C1B5D0BB0
:10181000CF01861B970B2D91222311F02193F5CF39
:101820009C01241B350B620F731FFB013297508301
:1018300031964083DF91CF9108958091E00390919C
:10184000E103009779F1DC01ED91FC910688F789BD
:10185000E02D0995209103043091040481111FC0EB
:10186000232B01F58DEF9FEF9093040480930304E5
:101870008091E0039091E103DC01ED91FC91068001
:10188000F781E02D09958091E0039091E103DC015F
:10189000ED91FC910488F589E02D099503C081E064
:1018A000232B09F080E00895BF92CF92DF92EF9250
:1018B000FF920F931F93CF93DF93B82E6B017A01A2
:1018C000E90161E871E080915103909152030E9417
:1018D00067104B2D50E060E070E02AE080915103EA
:1018E000909152030E9421076CE2809151039091E4
:1018F00052030E94D807A70160E070E02AE08091BF
:101900005103909152030E9421070115110509F11D
:101910006EE771E080915103909152030E9467102D
:10192000BE0180915103909152030E9425086BE7FC
:1019300071E080915103909152030E946710A801B9
:1019400060E070E02AE080915103909152030E9480
:10195000210761E089E791E00E94CB0B882399F190
:1019600080914F0390915003DC01ED91FC91028036
:10197000F381E02DA701B601099540E061E083E71E
:1019800091E00E94DB098823F1F088E593E00E9452
:1019900053196B017C0140E061E08DE691E00E940B
:1019A000DB09882381F06DE871E088E593E00E940F
:1019B0007A19892B11F4C60108C088E090E0909351
:1019C000AF038093AE0380E090E0DF91CF911F9151
:1019D0000F91FF90EF90DF90CF90BF900895AF925E
:1019E000BF92CF92DF92EF92FF920F931F93CF930C
:1019F000DF93B82E8B017A010E94C10B25E0B29EC5
:101A0000C0011124EC01CA56DC4FC880D980C11432
:101A1000D10469F4FC01EB56FC4F808180FD4BC082
:101A200086E090E09093AF038093AE0355C06DE5E0
:101A300071E080915103909152030E9467104B2DE9
:101A400050E060E070E02AE08091510390915203F1
:101A50000E9421076CE280915103909152030E94F1
:101A6000D807A70160E070E02AE0809151039091CF
:101A700052030E94210760E080E591E00E94CB0BB9
:101A80008823C9F080E693E00E9453196B017C0122
:101A9000AB01B80180914F03909150030E94BB109D
:101AA000C816D90659F01982188287E090E0909301
:101AB000AF038093AE03C12CD12C0EC088819981D5
:101AC0008C159D0518F41982188204C08C199D0983
:101AD000998388830E94BB0BC601DF91CF911F9130
:101AE0000F91FF90EF90DF90CF90BF90AF9008954F
:101AF000CF92DF92EF92FF920F931F93CF93DF93DA
:101B0000D82F8B017A010E94C10BCD2ED12C85E0FC
:101B1000D89FF0011124EB56FC4F808180FF6EC0EE
:101B200063E471E080915103909152030E94671029
:101B300061E08CE391E00E94CB0BC82F882309F46D
:101B40006DC041E061E081E391E00E94DB09C82FB4
:101B5000882309F453C080915E038053D813F1CFDA
:101B600060E672E083E593E00E949A1960E672E015
:101B700080E090E00E949A1960E672E080E090E0D8
:101B80000E949A19FC0190E020E030E08AE0419147
:101B9000442311F150ED540F5A3088F4829FB00164
:101BA000839F700D11249B0120533109240F311D97
:101BB00047FD3A952F3F310551F348F311C04E329E
:101BC00079F4933069F0D801A90FB11D12962C93C6
:101BD0009F5F20E030E0DBCF933011F4F8012583E4
:101BE00060E672E080E090E00E949A190E94351948
:101BF000F701918380830E94BB0B10C085E08C9D10
:101C0000F0018D9DF00D1124EB56FC4F108286E003
:101C100090E09093AF038093AE03C0E08C2FDF91F0
:101C2000CF911F910F91FF90EF90DF90CF9008958B
:101C30003FB7F8948091AE029091AF02A091B002AC
:101C4000B091B10226B5A89B05C02F3F19F00196AF
:101C5000A11DB11D3FBFBA2FA92F982F8827820F32
:101C6000911DA11DB11DBC01CD0142E0660F771F82
:101C7000881F991F4A95D1F708952FB7F89460915E
:101C8000AA027091AB028091AC029091AD022FBF7D
:101C90000895EF92FF920F931F93CF93DF9300D09D
:101CA00000D0CDB7DEB77B01BA0130E0962F9F7729
:101CB000660F672F661F770B71956115710509F027
:101CC000906821E0230FE1E0F0E0EC0FFD1FE30F4F
:101CD000F11D90836115710511F0322FE7CF30E0CF
:101CE000B701621B730B6C5F7F4FDB018C93DE01CE
:101CF0001196F701E21BF30B359685E0E80EF11C17
:101D0000EE16FF0619F08D918193FACF8091E003D2
:101D10009091E1032F5F3F4F8901040F151FDC01F4
:101D2000ED91FC910280F381E02DA80109957C01E1
:101D30000E943D0E6093EC037093ED038093EE03DD
:101D40009093EF0381E00E151F0509F080E00F90DE
:101D50000F900F900F90DF91CF911F910F91FF90F7
:101D6000EF9008958F929F92AF92BF92CF92DF92A1
:101D7000EF92FF92CF93DF93EC010E943D0E4B0157
:101D80005C018091E0039091E103DC01ED91FC9115
:101D90000084F185E02D0995892BB9F40E943D0E50
:101DA0002091E8033091E9036B017C01C818D90840
:101DB000EA08FB08A8EEB3E00E94501AC616D70640
:101DC000E806F906F0F280E00DC08091E003909102
:101DD000E103DC01ED91FC910284F385E02D09958E
:101DE000888381E0DF91CF91FF90EF90DF90CF90DB
:101DF000BF90AF909F908F9008952F923F924F92F7
:101E00005F926F927F928F929F92AF92BF92CF928A
:101E1000DF92EF92FF920F931F93CF93DF93CDB793
:101E2000DEB72A970FB6F894DEBF0FBECDBF1C01F8
:101E30008091E2039091E3030E94B20E811140C0B1
:101E40003BC07801CE0101960E94B20E8823A1F119
:101E500087010F5F1F4F8981E091E203F091E30357
:101E6000EE0DFF1D8083E981AE2FAF77B0E0A301B7
:101E700092010E94451A860E971EA81EB91E37E0D1
:101E8000440C551C661C771C3A95D1F7E7FF29C016
:101E900005301105B1F68FEF9FEF90930404809306
:101EA00003048091E0039091E103DC01ED91FC914A
:101EB0000488F589E02D099560E070E0CB01D7C07A
:101EC000E091E203F091E303D0801982EE24E394E1
:101ED000F12C812C912C5401412C512C3201439432
:101EE000B1CFBD2DB07FBE838FEF800FF101808316
:101EF000B03381F58091E2039091E303800F911F4D
:101F00000E94B20E8823C1F22091E2033091E303D4
:101F1000C7010296820F931F0E94B20E882361F2BE
:101F20000E5F1F4FE091E203F091E303D1018C912A
:101F3000DF01A80FB11D11968C91119790E0982F99
:101F4000882712962C91820F911D208121FF09C0B4
:101F5000029607C0F0E0E0E030E020E080E090E0B2
:101F600004C0F2E0E0E030E020E0A80160E070E0D2
:101F7000CF2EDE2EE32EF22E2A013B014C185D08F7
:101F80006E087F084A825B826C827D822C01612C04
:101F9000712C4F82588669867A864A805B806C8075
:101FA0007D804C0C5D1C6E1C7F1CC814D904EA0497
:101FB000FB0408F046C0CE0101960E94B20E8823B1
:101FC00009F47ACF8091010490910204009711F1F5
:101FD0002E812033F9F4D1012C914EEF5FEF6FEF9A
:101FE0007FEF421B510961097109440E551E661E9F
:101FF000771E2F81388549855A8524153505460574
:10200000570540F4DC01ED91FC910190F081E02D49
:10201000698109958091E4039091E50308171907F8
:1020200050F48981E091E203F091E303E00FF11FA6
:1020300080830F5F1F4FBFEFCB1ADB0AEB0AFB0A4F
:10204000ACCF8091010490910204892B69F48091B6
:10205000E4039091E503A0E0B0E084159505A605A2
:10206000B70510F400E010E0B80180E090E02A9697
:102070000FB6F894DEBF0FBECDBFDF91CF911F9199
:102080000F91FF90EF90DF90CF90BF90AF909F9017
:102090008F907F906F905F904F903F902F9008951A
:1020A000CF93DF93ECEDF3E0EC018A819B81AC816F
:1020B000BD81858F968FA78FB0A38BE597E094A302
:1020C00083A312A211A2CF01DF91CF910895EF92C5
:1020D000FF920F931F93CF93DF938C017B01C0E09E
:1020E000D0E0F701EC0FFD1F6491662361F0D80189
:1020F000ED91FC910190F081E02DC8010995892BAB
:1021000011F02196EECFCE01DF91CF911F910F916B
:10211000FF90EF9008950F931F93CF93DF93EC01FF
:102120000E943D0E688779878A879B87E881F981BD
:102130000284F385E02DCE01099597FF17C00E9418
:102140003D0E088519852A853B85DC01CB01801B66
:10215000910BA20BB30B0C811D812E813F81801747
:102160009107A207B30710F38FEF9FEFDF91CF9195
:102170001F910F910895CF92DF92EF92FF920F93EC
:102180001F93CF93DF936C017A018B01C0E0D0E005
:10219000CE15DF0559F0C6010E948B1097FD05C0D2
:1021A000F80181938F012196F3CF7E01C701DF9162
:1021B000CF911F910F91FF90EF90DF90CF900895F6
:1021C0001F920F920FB60F9211242F933F938F936C
:1021D0009F93AF93BF938091AA029091AB02A0917D
:1021E000AC02B091AD023091900423E0230F2D3763
:1021F00020F40196A11DB11D05C026E8230F02960B
:10220000A11DB11D209390048093AA029093AB026C
:10221000A093AC02B093AD028091AE029091AF0258
:10222000A091B002B091B1020196A11DB11D8093A1
:10223000AE029093AF02A093B002B093B102BF91EF
:10224000AF919F918F913F912F910F900FBE0F9063
:102250001F90189580E491E09093BE038093BD0396
:102260008091A6029091A7028D5B934071F4E0915A
:10227000D003F091D10390818091D203809589237E
:1022800080831092A7021092A6028091E20390919F
:10229000E3030C94251BCF93DF93CDB7DEB72D97C7
:1022A0000FB6F894DEBF0FBECDBF789484B58260C0
:1022B00084BD84B5816084BD85B5826085BD85B5EA
:1022C000816085BD80916E00816080936E00109268
:1022D00081008091810082608093810080918100E3
:1022E0008160809381008091800081608093800074
:1022F0008091B10084608093B1008091B0008160D2
:102300008093B00080917A00846080937A008091FD
:102310007A00826080937A0080917A008160809355
:102320007A0080917A00806880937A001092C100D0
:10233000E091C202F091C30282E08083E091BE028C
:10234000F091BF021082E091C002F091C1028FECC7
:1023500080831092CA02E091C602F091C70286E023
:102360008083E091C402F091C50280818061808306
:10237000E091C402F091C502808188608083E09181
:10238000C402F091C502808180688083E091C4021C
:10239000F091C50280818F7D80831092D8031092C6
:1023A000D7031092D6031092D5031092D403109243
:1023B000D3038DE991E09093DA038093D903909150
:1023C000C903963108F058C02DEB30E03093D403A8
:1023D0002093D3032BE931E03093D6032093D50328
:1023E0002CE231E03093D8032093D703409168006A
:1023F000983058F031E09E3008F430E021E0822F30
:1024000001C0880F3A95EAF701C084E0842B8093DD
:102410006800983038F09E3040F0963148F020E067
:1024200030E008C02DE630E005C02BE630E002C009
:102430002CE630E03093D1032093D003983030F471
:1024400081E001C0880F9A95EAF70EC0292F30E08D
:102450009E3018F42850310902C02E50310981E015
:1024600001C0880F2A95EAF78093D2038091D9039F
:102470009091DA030197F1F78091D7039091D803F7
:10248000892B49F1E091A602F091A70223E0ED3BF0
:10249000F20709F1309739F0A389B4899C918589B5
:1024A000809589238C938091DB038E7F8093DB035F
:1024B0001092A5021092A4028DEB93E09093A702D4
:1024C0008093A602E091D003F091D1039081809196
:1024D000D203892B80838DEB93E0909350038093FC
:1024E0004F0390935203809351031092AF031092C5
:1024F000AE030E94C10B6EED70E08091510390918C
:1025000052030E94671061E088ED90E00E94CB0BBF
:1025100083ED90E00E94E50B882309F40EC487EC5C
:1025200090E00E94E50B882309F407C486EB90E055
:102530000E94E50B882309F400C46BEA70E08091E7
:102540005103909152030E94671061E083EA90E08A
:102550000E94CB0B882309F4F0C380915B03805366
:10256000809393030E94BB0B882309F4E6C38091F8
:1025700093038093940380E08093B403EE24E39468
:10258000F12C8091A8029091A902019709F48BC0C7
:1025900066EA71E082EB92E00E94250860E171E05A
:1025A00082EB92E00E946E070091B5030E94C10B7E
:1025B00090919303192F116080919403811105C0AC
:1025C000F092AF03E092AE0332C0911306C0002335
:1025D00009F408C4181303C02CC0002319F062E1E9
:1025E00071E002C063E071E0809151039091520369
:1025F0000E946710412F50E060E070E02AE0809177
:102600005103909152030E942107809151039091B0
:1026100052030E946A070E94BB0B882341F010936B
:102620009303002309F4DEC31093940302C082E0F5
:1026300032C068EF70E080915103909152030E9484
:10264000671060E171E080915103909152030E9404
:10265000250865EE70E080915103909152030E942D
:10266000671060E071E080915103909152030E94E5
:10267000250862E280915103909152030E94D8078D
:1026800080915103909152030E946A070E94BB0BF4
:10269000882369F281E08093B40390E09093A902CB
:1026A0008093A8026ECF80E891E09A83898380911D
:1026B000070490910804A0910904B0910A048B8347
:1026C0009C83AD83BE83CE0101960E94501089ED9C
:1026D00098E09093F6038093F503AA24A394B12C79
:1026E000FCEF2F2E33243A940E941D0C8111B1C1AE
:1026F0000E941D0C8111ADC16AEC71E082EB92E089
:102700000E946E070E941D0C811108C18091E00398
:102710009091E103DC01ED91FC910688F789E02DB1
:102720000995882391F0B092EB03A092EA0387E029
:10273000E3E2F1E0DE01119601900D928A95E1F756
:10274000DE01119685E090E039C06091FD03709143
:10275000FE038091E0039091E1034091FF035091CB
:102760000004DC01ED91FC916115710521F00088F8
:10277000F189E02D18C00684F785E02D70E8672EFA
:1027800071E0772E7A8269820091F9031091FA0341
:102790002091FB033091FC030B831C832D833E832C
:1027A000BE016F5F7F4F0995019709F4BCCFEEEF33
:1027B000FFEFF0930404E0930304C1C22D91E09174
:1027C000E203F091E303E80FF91F208301968C30B8
:1027D0009105A1F70091E2031091E303E2E0D80133
:1027E0001C96EC931C978091E7031D968C931D9784
:1027F0008091E6031E968C93E090E403F090E5034D
:10280000B70188EE91E00E949F194196E816F906FB
:1028100008F478C04FE050E0B80188EE91E00E94E3
:10282000FD0BAC01455051096091E2037091E30347
:1028300080E10E94490E0E943D0E6093EC0370936C
:10284000ED038093EE039093EF036093F003709396
:10285000F1038093F2039093F3038091E00390914E
:10286000E103DC01ED91FC910084F185E02D0995F7
:10287000892B11F50E943D0E2091E8033091E90368
:10288000C090F003D090F103E090F203F090F303D6
:102890003B014C016C187D088E089F08A8EEB3E040
:1028A0000E94501A6616770688069906B0F2309292
:1028B00004042092030426C0CE0108960E94FD0E57
:1028C0006430710581059105E9F4E091E203F0912E
:1028D000E3038381811111C00E943D0E6093F003D8
:1028E0007093F1038093F2039093F3031092F40337
:1028F000109204041092030411C090E09093040419
:10290000809303048091E0039091E103DC01ED9159
:10291000FC910488F589E02D099511C266EF71E0FC
:1029200082EB92E00E946E076091E4037091E503F0
:1029300080E092E00E949F198C010E941D0C882368
:10294000E1F1E090E403F090E503B70188E292E062
:102950000E949F199801295F3F4F820F931FE8162D
:10296000F90658F16091E2037091E30345E050E00D
:1029700088E292E00E94FD0BA80140505E4FE0E02B
:10298000F2E09C0120503240690196012E0F3F1F5A
:102990006091E2037091E303E417F50731F0F190E1
:1029A000620F731FDB01FC92F0CF05501109A801E3
:1029B000480F591F80E30E94490E0091E4031091D3
:1029C000E503B80180E392E00E949F190996081779
:1029D000190708F48DCE0E941D0C882309F488CEB7
:1029E0008091EA039091EB03019629F09093EB0319
:1029F0008093EA0304C0B092EB03A092EA03E09153
:102A0000E203F091E3038091EB038583E091E2031D
:102A1000F091E3038091EA0386836091E203709171
:102A2000E30347E050E080E392E00E94FD0BE09179
:102A3000E203F091E303E80FF91F1082AC01445068
:102A400051096091E2037091E30382E80E94490E0C
:102A50004FCE0E941D0C882309F46CC10E943D0ECC
:102A60006B017C012091E6033091E703A8EEB3E00F
:102A70000E94501A0091F0031091F1032091F2038B
:102A80003091F30336014701601A710A820A930AF2
:102A90006615770588059905A0F00091EC03109163
:102AA000ED032091EE033091EF0336014701601AE8
:102AB000710A820A930A661577058805990508F058
:102AC00043C08091F403882381F030920404209263
:102AD00003048091E0039091E103DC01ED91FC910E
:102AE0000488F589E02D099525C1E091E203F09174
:102AF000E30380EC8083E091E203F091E303118231
:102B00008091E0039091E1036091E2037091E3030F
:102B1000DC01ED91FC910280F381E02D42E050E078
:102B20000995C092EC03D092ED03E092EE03F0928F
:102B3000EF03C092F003D092F103E092F203F0921F
:102B4000F30381E08093F4038091E0039091E1032B
:102B5000DC01ED91FC910084F185E02D0995892B34
:102B600009F4E8C0CE0101960E94FD0E2B013C0144
:102B7000672B09F4DDC0C092F003D092F103E0921C
:102B8000F203F092F303E091E203F091E30380811A
:102B9000807F803309F0ACC08091F5039091F603FB
:102BA000892B09F4C7C0298130E0C90102968E0F34
:102BB0009F1FDF01A20FB31F11960C9110E0102F81
:102BC0000027DC014C91040F111D2D5F3F4FBF0109
:102BD000620F731FA8010E94B31B8981E091E20379
:102BE000F091E303E00FF11FE80FF11D1282E09175
:102BF000E203F091E303298130E04901B2E08B0E5A
:102C0000911C8E0E9F1E808186708B87A091F5038C
:102C1000B091F603BD87AC87823009F055C0B8018A
:102C2000620F731FDF01A60FB71F13968C911397C6
:102C300090E0982F882714964C91DC01A40FB11DC9
:102C4000BA87A9874BEF5FEF421B530B401B510B19
:102C5000440D551D6B5F7F4F6E0F7F1FC401EC85C8
:102C6000FD850995E091E203F091E30380E4808320
:102C7000E091E203F091E3036B846182E091E2036F
:102C8000F091E3037A847282E091E203F091E3032E
:102C9000898483828091E0039091E1036091E20353
:102CA0007091E303DC01ED91FC910280F381E02D52
:102CB00044E050E00995C092EC03D092ED03E0921D
:102CC000EE03F092EF0336C04DEF5FEF421B530B64
:102CD000401B510B440D551D2D5F3F4F200F311FE1
:102CE000BF01620F731FC401EC85FD85099522C0E9
:102CF000803CC9F480ED8083E091E203F091E3032E
:102D000011828091E0039091E1036091E203709160
:102D1000E303DC01ED91FC910280F381E02D42E0C0
:102D200050E0099507C0803D29F41092F40302C0D9
:102D30000E941D0C0E943802D7CC8FEF1DCC62E59B
:102D400072E082EB92E00E942508C0900304D090CC
:102D500004040D2C000CEE08FF08F7FE0EC06DE217
:102D600082EB92E00E94D80744275527BA014C19FC
:102D70005D096E097F092AE003C02AE0B701A601B8
:102D800082EB92E00E9421076AE372E082EB92E01C
:102D90000E946E070E94180E2B013C0168E8C62EA7
:102DA00063E1D62EE12CF12C0E94180EDC01CB0140
:102DB00084199509A609B709883E9340A105B10574
:102DC00098F3B1E0CB1AD108E108F108E8EE4E0E15
:102DD000E3E05E1E611C711CC114D104E104F10426
:102DE00019F786CC69EE70E026CC90E0FC01E35E3A
:102DF000FE4F2491FC01E150FE4F3491FC01E5515E
:102E0000FE4FE491EE2309F43CC0222339F1233034
:102E100091F038F42130A9F0223001F584B58F7D8E
:102E200012C0273091F02830A1F02430B9F48091FD
:102E300080008F7D03C0809180008F778093800019
:102E40000DC084B58F7784BD09C08091B0008F77A5
:102E500003C08091B0008F7D8093B000F0E0EE0F52
:102E6000FF1FEF51FE4FA591B4919FB7F8946111E8
:102E700004C08C913095382302C0EC913E2B3C93DA
:102E80009FBF0895CF92DF92EF92FF92CF93DF938F
:102E90001092B5021092B40268EEC62E63E0D62EF0
:102EA000E12CF12CC092B602D092B702E092B802A7
:102EB000F092B9028EE291E09093B3028093B20255
:102EC00085EC90E09093BF028093BE0284EC90E08A
:102ED0009093C1028093C00280EC90E09093C30273
:102EE0008093C20281EC90E09093C5028093C4026B
:102EF00082EC90E09093C7028093C60286EC90E04B
:102F00009093C9028093C8021092CB021092CC0217
:102F10001092CD021092CE0280E891E090930C04C2
:102F200080930B0410920D0410920E0410920F0463
:102F300010921004909312048093110410921304C1
:102F40001092140410921504109216041092930318
:102F50001092940310929503109297031092960387
:102F600010929A0310929C0310929B0310929F035D
:102F70001092A1031092A0031092A4031092A60332
:102F80001092A5031092A9031092AB031092AA030A
:102F900021E030E03093AF032093AE039093180408
:102FA000809317041092190410921A0410921B04B3
:102FB00010921C0490931E0480931D0410921F0411
:102FC0001092200410922104109222049093240461
:102FD0008093230410922504109226041092270453
:102FE000109228042FEF2093B4031092B50390930E
:102FF0008B0480938A0410928C0410928D0410929A
:103000008E0410928F04909306048093050431EA95
:103010003093070433E23093080432E0309309041C
:1030200034ED30930A0410922C0410922B04C092B9
:103030002D04D0922E04E0922F04F09230044EE53D
:1030400051E050932A04409329041092780410927E
:10305000770410927A041092790410927B041092F3
:1030600081041092800410928304109282041092C2
:1030700089041092880446E354E050937D04409301
:103080007C0440E250E050937F0440937E0466E568
:1030900074E0709385046093840450938704409394
:1030A000860420937604209335041092DF03109257
:1030B000DE0322E531E03093DD032093DC039093BF
:1030C000F8038093F7031092F9031092FA03109219
:1030D000FB031092FC038FEF9FEF90930404809307
:1030E000030489E294E09093E1038093E00310925B
:1030F00002041092010480E091E00E948D1A9093E6
:10310000E3038093E20380E091E09093E5038093F2
:10311000E4038FE090E09093E7038093E6039093BD
:10312000E9038093E8031092C0031092BF03C0929A
:10313000C103D092C203E092C303F092C40380E4BF
:1031400091E09093BE038093BD031092D40310923C
:10315000D3031092D6031092D5031092D803109285
:10316000D7031092DA031092D9036091DB036E7FCC
:103170006D7F6093DB036695617081E0682783E073
:103180000E94F516E2E0F2E02491EEEEF1E0849187
:10319000882399F090E0880F991FFC01E952FE4FB7
:1031A000A591B491FC01EF51FE4F859194918FB799
:1031B000F894EC91E22BEC938FBFE2E0F2E0E49123
:1031C000E093CD03EEEEF1E0E491F0E0EE0FFF1FAF
:1031D000EF51FE4F859194919093CF038093CE034E
:1031E000E1E0F2E02491EDEEF1E084918823C1F07A
:1031F00090E0880F991FFC01E952FE4FC591D491D0
:10320000FC01EF51FE4FA591B4919FB7F8948881CE
:10321000E22FE0958E2388838C91E823EC939FBF67
:103220008091DB0381FD04C061E082E00E94F5161D
:1032300082E08093C903E1E0F2E0E491E093CA0305
:10324000EDEEF1E0E491F0E0EE0FFF1FE353FE4FEF
:10325000859194919093CC038093CB03DF91CF9190
:10326000FF90EF90DF90CF900895FC018827992779
:10327000E89421912032E9F3293010F02E30C8F380
:103280002B3241F02D3239F4689404C00E94F119B8
:10329000820F911D219120532A30C0F31EF4909586
:1032A00081959F4F08951F93FC0199278827BC01A2
:1032B000E89411911032E9F3193010F01E30C8F380
:1032C0001B3251F01D3249F4689406C00E94DC198B
:1032D000610F711D811D911D119110531A30B0F3B2
:1032E0003EF490958095709561957F4F8F4F9F4FDD
:1032F0001F910895FB01DC018D910590801901104B
:10330000D9F3990B0895FC0105900020E9F7809509
:1033100090958E0F9F1F0895FB01DC014150504096
:1033200030F08D910590801919F40020B9F7881BB1
:10333000990B089541E954E00E94AA190895FC01EF
:103340006150704001900110D8F7809590958E0FD4
:103350009F1F0895FA01A191B081009719F4109769
:10336000E1F0CD01DC01CD010D90002011F4C00190
:1033700013C0FB012191222319F02015D9F7F3CFB7
:10338000FB012191201519F41E92119606C02223EB
:10339000C1F70D900020A1F7D001FA01A193B083ED
:1033A0000895BB274A3031F4992322F4BDE2909569
:1033B00081959F4F0C94FA19592F482F372F262F9C
:1033C000660F771F881F991F660F771F881F991F29
:1033D000620F731F841F951F660F771F881F991F29
:1033E00008957AE0979F902D879F802D910D11244D
:1033F0000895BB27FB015527AA27880F991FAA1FED
:10340000A41710F0A41B83955051B9F7A05DAA33FF
:1034100008F0A95DA193009779F7B111B1931192CA
:10342000CB010C94131ADC01FC01672F71917723F7
:10343000E1F7329704C07C916D9370836291AE176F
:10344000BF07C8F30895A1E21A2EAA1BBB1BFD01FA
:103450000DC0AA1FBB1FEE1FFF1FA217B307E40773
:10346000F50720F0A21BB30BE40BF50B661F771FCB
:10347000881F991F1A9469F76095709580959095AB
:103480009B01AC01BD01CF0108950E94501AA59F78
:10349000900DB49F900DA49F800D911D112408954F
:1034A000A29FB001B39FC001A39F700D811D112485
:1034B000911DB29F700D811D1124911D089597FBE0
:1034C000072E16F4009407D077FD09D00E94731AD6
:1034D00007FC05D03EF4909581959F4F0895709517
:1034E00061957F4F0895AA1BBB1B51E107C0AA1F1E
:1034F000BB1FA617B70710F0A61BB70B881F991F95
:103500005A95A9F780959095BC01CD010895EE0FCD
:10351000FF1F0590F491E02D09940F931F93CF9313
:10352000DF938230910510F482E090E0E091950401
:10353000F091960420E030E0A0E0B0E0309719F17F
:10354000408151810281138148175907C8F08417BF
:10355000950769F4109731F012960C931297139611
:103560001C9327C0009395041093960422C0211544
:10357000310519F04217530718F49A01BD01EF0104
:10358000DF01F801DBCF21153105F9F0281B390BDC
:103590002430310580F48A819B816115710521F009
:1035A000FB019383828304C09093960480939504D7
:1035B000FE01329644C0FE01E20FF31F8193919306
:1035C00022503109398328833AC0209193043091E5
:1035D0009404232B41F420911F013091200130935A
:1035E00094042093930420911D0130911E01211514
:1035F000310541F42DB73EB7409121015091220190
:10360000241B350BE0919304F0919404E217F30727
:10361000A0F42E1B3F0B2817390778F0AC014E5F42
:103620005F4F2417350748F04E0F5F1F50939404E7
:10363000409393048193919302C0E0E0F0E0CF01C6
:10364000DF91CF911F910F910895CF93DF93009752
:1036500009F481C0FC01329713821282A091950473
:10366000B0919604109781F420813181820F931FCD
:1036700020919304309194042817390751F5F09361
:103680009404E093930467C0ED0120E030E0CE178E
:10369000DF0740F44A815B819E0141155105F1F03D
:1036A000EA01F5CFD383C28340815181840F951FF6
:1036B000C817D90759F488819981840F951F0296FC
:1036C000918380838A819B81938382832115310535
:1036D00029F4F0939604E09395043DC0E901FB833F
:1036E000EA8349915991C40FD51FEC17FD0761F486
:1036F00080819181840F951F0296E90199838883C7
:10370000828193819B838A83E0E0F0E012968D9121
:103710009C911397009719F0FD01DC01F7CF8D9173
:103720009C9111979D012E5F3F4F820F931F209117
:103730009304309194042817390769F4309729F4D9
:10374000109296041092950402C013821282B093D4
:103750009404A0939304DF91CF91089581E090E0C9
:10376000F8940C94CE1B6817790768F4FB01DC0110
:10377000E40FF51FA40FB51F02C002900E92415036
:103780005040D8F708950C94C51BFB01DC0102C022
:1037900001900D9241505040D8F7089511E0CBE0D0
:1037A000D1E004C0FE010E94871A2196CC30D107D7
:0637B000C9F7F894FFCFF9
:1037B60067656D6D796D69666679363635323100C5
:1037C6004F505455535F3338353435340000009725
:1037D60004200000044D5154540400000000C901A7
:1037E60036016001160291016F018301000000009D
:1037F60063023601ED026202B302CB024A02000006
:10380600000027030703ED02EC02000000002E066D
:103816009C05ED029805940570055505A806270830
:10382600510580073F034202830658060000000048
:10383600DF0700000000F0022C000D0A0054435080
:10384600004D6573736167652061727269766564A0
:10385600205B005D2000417474656D7074696E674D
:1038660020746F20636F6E6E65637420746F2057CB
:10387600504120535349443A2000417474656D7099
:1038860074696E67204D51545420636F6E6E656384
:1038960074696F6E2E2E2E0061726475696E6F43A9
:1038A6006C69656E7400636F6E6E65637465640043
:1038B60041726475696E6F20686173207375636306
:1038C60065737366756C6C792073656E7420612000
:1038D6006D657373616765007061747465737400F8
:1038E600526563656976656420002074727920618B
:1038F6006761696E20696E2035207365636F6E643B
:1039060073006661696C65642C2072633D003F003C
:043916002C2200005F
:00000001FF
